{
    "tests/prague/eip7692_eof_v1/eip7620_eof_create/test_eofcreate_failures.py::test_eof_eofcreate_msg_depth[fork_CancunEIP7692-blockchain_test_engine-call_fails-opcode_EXTCALL]": {
        "network": "Prague",
        "genesisBlockHeader": {
            "parentHash": "0x0000000000000000000000000000000000000000000000000000000000000000",
            "uncleHash": "0x1dcc4de8dec75d7aab85b567b6ccd41ad312451b948a7413f0a142fd40d49347",
            "coinbase": "0x0000000000000000000000000000000000000000",
            "stateRoot": "0xed5a0434e8f8f2cc1efdd6d8286ce2ef6e9b94c1e9f3fcf84e88080dba7b249f",
            "transactionsTrie": "0x56e81f171bcc55a6ff8345e692c0f86e5b48e01b996cadc001622fb5e363b421",
            "receiptTrie": "0x56e81f171bcc55a6ff8345e692c0f86e5b48e01b996cadc001622fb5e363b421",
            "bloom": "0x00000000000000000000000000000000000000000000000000000000000000000000000000000000000000000000000000000000000000000000000000000000000000000000000000000000000000000000000000000000000000000000000000000000000000000000000000000000000000000000000000000000000000000000000000000000000000000000000000000000000000000000000000000000000000000000000000000000000000000000000000000000000000000000000000000000000000000000000000000000000000000000000000000000000000000000000000000000000000000000000000000000000000000000000000000000",
            "difficulty": "0x00",
            "number": "0x00",
            "gasLimit": "0xb766917c3f46",
            "gasUsed": "0x00",
            "timestamp": "0x00",
            "extraData": "0x00",
            "mixHash": "0x0000000000000000000000000000000000000000000000000000000000000000",
            "nonce": "0x0000000000000000",
            "baseFeePerGas": "0x07",
            "withdrawalsRoot": "0x56e81f171bcc55a6ff8345e692c0f86e5b48e01b996cadc001622fb5e363b421",
            "blobGasUsed": "0x00",
            "excessBlobGas": "0x00",
            "parentBeaconBlockRoot": "0x0000000000000000000000000000000000000000000000000000000000000000",
            "hash": "0x5ef195a1f63674586ea80751da93a661d03a3ef2636033a92be2ab7859cf948d"
        },
        "pre": {
            "0x000f3df6d732807ef1319fb7b8bb8522d0beac02": {
                "nonce": "0x01",
                "balance": "0x00",
                "code": "0x3373fffffffffffffffffffffffffffffffffffffffe14604d57602036146024575f5ffd5b5f35801560495762001fff810690815414603c575f5ffd5b62001fff01545f5260205ff35b5f5ffd5b62001fff42064281555f359062001fff015500",
                "storage": {}
            },
            "0xa94f5374fce5edbc8e2a8697c15331677e6ebf0b": {
                "nonce": "0x00",
                "balance": "0x3635c9adc5dea00000",
                "code": "0x",
                "storage": {}
            },
            "0x0000000000000000000000000000000000005000": {
                "nonce": "0x01",
                "balance": "0x00",
                "code": "0xef0001010004020001003f030001004f040000000080000460016000350160005263cc12ea7e606052602060006000356000ec003d15e1000c6060600060203e60606020fd6001600035016020525b60405260606020fdef0001010004020001003c040000000080000460016000350160005261ca11606052600060206000615000f83d15e1000c6060600060203e60606020fd6001600035016020525b60405260606020fd",
                "storage": {}
            },
            "0x0000000000000000000000000000000000001000": {
                "nonce": "0x01",
                "balance": "0x00",
                "code": "0xef000101000402000100290400000000800004600035600052600060206000615000f86000f76008556020f76005556040f760095561201560015500",
                "storage": {}
            },
            "0x0000000000000000000000000000000000001100": {
                "nonce": "0x01",
                "balance": "0x00",
                "code": "0xef0001010004020001001004000000008000046001600052600060206000611000f800",
                "storage": {}
            }
        },
        "postState": {
            "0x0000000000000000000000000000000000001000": {
                "nonce": "0x01",
                "balance": "0x00",
                "code": "0xef000101000402000100290400000000800004600035600052600060206000615000f86000f76008556020f76005556040f760095561201560015500",
                "storage": {
                    "0x01": "0x2015",
                    "0x05": "0x01",
                    "0x08": "0x0400",
                    "0x09": "0xca11"
                }
            },
            "0x0000000000000000000000000000000000001100": {
                "nonce": "0x01",
                "balance": "0x00",
                "code": "0xef0001010004020001001004000000008000046001600052600060206000611000f800",
                "storage": {}
            },
            "0x0000000000000000000000000000000000005000": {
                "nonce": "0x01",
                "balance": "0x00",
                "code": "0xef0001010004020001003f030001004f040000000080000460016000350160005263cc12ea7e606052602060006000356000ec003d15e1000c6060600060203e60606020fd6001600035016020525b60405260606020fdef0001010004020001003c040000000080000460016000350160005261ca11606052600060206000615000f83d15e1000c6060600060203e60606020fd6001600035016020525b60405260606020fd",
                "storage": {}
            },
            "0x000f3df6d732807ef1319fb7b8bb8522d0beac02": {
                "nonce": "0x01",
                "balance": "0x00",
                "code": "0x3373fffffffffffffffffffffffffffffffffffffffe14604d57602036146024575f5ffd5b5f35801560495762001fff810690815414603c575f5ffd5b62001fff01545f5260205ff35b5f5ffd5b62001fff42064281555f359062001fff015500",
                "storage": {
                    "0x03e8": "0x03e8"
                }
            },
            "0x2adc25665018aa1fe0e6bc666dac8fc2697ff9ba": {
                "nonce": "0x00",
                "balance": "0x02fa0b40",
                "code": "0x",
                "storage": {}
            },
            "0xa94f5374fce5edbc8e2a8697c15331677e6ebf0b": {
                "nonce": "0x01",
                "balance": "0x3635c9adc5d4b3da80",
                "code": "0x",
                "storage": {}
            }
        },
        "lastblockhash": "0x7bf5a1ad6fda00046837a6010268154144a40b762b3333918de88a17de94e6d5",
        "engineNewPayloads": [
            {
                "params": [
                    {
                        "parentHash": "0x5ef195a1f63674586ea80751da93a661d03a3ef2636033a92be2ab7859cf948d",
                        "feeRecipient": "0x2adc25665018aa1fe0e6bc666dac8fc2697ff9ba",
                        "stateRoot": "0xb1a5efc67ba2561dcb990016152b6e8760d6e3538c56dd6ef9d330555d35de82",
                        "receiptsRoot": "0xf8ab1f6dfbbec9a62b0bf792ac018785d3ce61e3295f163d01c8bf5c8e51a1b1",
                        "logsBloom": "0x00000000000000000000000000000000000000000000000000000000000000000000000000000000000000000000000000000000000000000000000000000000000000000000000000000000000000000000000000000000000000000000000000000000000000000000000000000000000000000000000000000000000000000000000000000000000000000000000000000000000000000000000000000000000000000000000000000000000000000000000000000000000000000000000000000000000000000000000000000000000000000000000000000000000000000000000000000000000000000000000000000000000000000000000000000000",
                        "blockNumber": "0x1",
                        "gasLimit": "0xb766917c3f46",
                        "gasUsed": "0xfe03c0",
                        "timestamp": "0x3e8",
                        "extraData": "0x00",
                        "prevRandao": "0x0000000000000000000000000000000000000000000000000000000000000000",
                        "baseFeePerGas": "0x7",
                        "blobGasUsed": "0x0",
                        "excessBlobGas": "0x0",
                        "blockHash": "0x7bf5a1ad6fda00046837a6010268154144a40b762b3333918de88a17de94e6d5",
                        "transactions": [
                            "0xf863800a86b766917c3f46940000000000000000000000000000000000001000808026a070e1b9cc58598fbd49fe981fe9aba2194d945861a0d928f0156f7e3d31838637a07f45463c6ec41c405a85cde964606f2a5c19e01f786984766a6b8192d6072ccb"
                        ],
                        "withdrawals": []
                    },
                    [],
                    "0x0000000000000000000000000000000000000000000000000000000000000000"
                ],
                "newPayloadVersion": "3",
                "forkchoiceUpdatedVersion": "3"
            }
        ],
        "_info": {
            "hash": "0xa213a87e852a5709092de6ab4af91fe3ae36520ce0b08f83e0af5e7a4b028c09",
            "comment": "`execution-spec-tests` generated test",
            "filling-transition-tool": "evmone-t8n 0.12.0+commit.3f7a16e3",
            "description": "Test function documentation:\n\n    Test EOFCREATE handles msg depth limit correctly (1024).\n    NOTE: due to block gas limit and the 63/64th rule this limit is unlikely to be hit\n          on mainnet.\n    NOTE: See `tests/prague/eip7692_eof_v1/eip7069_extcall/test_calls.py::test_eof_calls_msg_depth`\n          for more explanations and comments. Most notable deviation from that test is that here\n          calls and `EOFCREATE`s alternate in order to reach the max depth. `who_fails` decides\n          whether the failing depth 1024 will be on a call or on an `EOFCREATE` to happen.",
            "url": "https://github.com/ethereum/execution-spec-tests/blob/eip7692@v1.0.9/tests/prague/eip7692_eof_v1/eip7620_eof_create/test_eofcreate_failures.py#L658",
            "reference-spec": "https://github.com/ethereum/EIPs/blob/master/EIPS/eip-7620.md",
            "reference-spec-version": "52ddbcdddcf72dd72427c319f2beddeb468e1737"
        }
    },
    "tests/prague/eip7692_eof_v1/eip7620_eof_create/test_eofcreate_failures.py::test_eof_eofcreate_msg_depth[fork_CancunEIP7692-blockchain_test_engine-call_fails-opcode_EXTDELEGATECALL]": {
        "network": "Prague",
        "genesisBlockHeader": {
            "parentHash": "0x0000000000000000000000000000000000000000000000000000000000000000",
            "uncleHash": "0x1dcc4de8dec75d7aab85b567b6ccd41ad312451b948a7413f0a142fd40d49347",
            "coinbase": "0x0000000000000000000000000000000000000000",
            "stateRoot": "0xfb24c47ff8a733f1fd5bf7f129cbbb7101d0589bff8e4b1e10dbbe988dfb672c",
            "transactionsTrie": "0x56e81f171bcc55a6ff8345e692c0f86e5b48e01b996cadc001622fb5e363b421",
            "receiptTrie": "0x56e81f171bcc55a6ff8345e692c0f86e5b48e01b996cadc001622fb5e363b421",
            "bloom": "0x00000000000000000000000000000000000000000000000000000000000000000000000000000000000000000000000000000000000000000000000000000000000000000000000000000000000000000000000000000000000000000000000000000000000000000000000000000000000000000000000000000000000000000000000000000000000000000000000000000000000000000000000000000000000000000000000000000000000000000000000000000000000000000000000000000000000000000000000000000000000000000000000000000000000000000000000000000000000000000000000000000000000000000000000000000000",
            "difficulty": "0x00",
            "number": "0x00",
            "gasLimit": "0xb766917c3f46",
            "gasUsed": "0x00",
            "timestamp": "0x00",
            "extraData": "0x00",
            "mixHash": "0x0000000000000000000000000000000000000000000000000000000000000000",
            "nonce": "0x0000000000000000",
            "baseFeePerGas": "0x07",
            "withdrawalsRoot": "0x56e81f171bcc55a6ff8345e692c0f86e5b48e01b996cadc001622fb5e363b421",
            "blobGasUsed": "0x00",
            "excessBlobGas": "0x00",
            "parentBeaconBlockRoot": "0x0000000000000000000000000000000000000000000000000000000000000000",
            "hash": "0x0c437239918008ebf92ba20f2a4256e9e9371a0fdb6b0617beef1dfe308b332c"
        },
        "pre": {
            "0x000f3df6d732807ef1319fb7b8bb8522d0beac02": {
                "nonce": "0x01",
                "balance": "0x00",
                "code": "0x3373fffffffffffffffffffffffffffffffffffffffe14604d57602036146024575f5ffd5b5f35801560495762001fff810690815414603c575f5ffd5b62001fff01545f5260205ff35b5f5ffd5b62001fff42064281555f359062001fff015500",
                "storage": {}
            },
            "0xa94f5374fce5edbc8e2a8697c15331677e6ebf0b": {
                "nonce": "0x00",
                "balance": "0x3635c9adc5dea00000",
                "code": "0x",
                "storage": {}
            },
            "0x0000000000000000000000000000000000005000": {
                "nonce": "0x01",
                "balance": "0x00",
                "code": "0xef0001010004020001003f030001004d040000000080000460016000350160005263cc12ea7e606052602060006000356000ec003d15e1000c6060600060203e60606020fd6001600035016020525b60405260606020fdef0001010004020001003a040000000080000460016000350160005261ca1160605260206000615000f93d15e1000c6060600060203e60606020fd6001600035016020525b60405260606020fd",
                "storage": {}
            },
            "0x0000000000000000000000000000000000001000": {
                "nonce": "0x01",
                "balance": "0x00",
                "code": "0xef00010100040200010027040000000080000360003560005260206000615000f96000f76008556020f76005556040f760095561201560015500",
                "storage": {}
            },
            "0x0000000000000000000000000000000000001100": {
                "nonce": "0x01",
                "balance": "0x00",
                "code": "0xef0001010004020001001004000000008000046001600052600060206000611000f800",
                "storage": {}
            }
        },
        "postState": {
            "0x0000000000000000000000000000000000001000": {
                "nonce": "0x01",
                "balance": "0x00",
                "code": "0xef00010100040200010027040000000080000360003560005260206000615000f96000f76008556020f76005556040f760095561201560015500",
                "storage": {
                    "0x01": "0x2015",
                    "0x05": "0x01",
                    "0x08": "0x0400",
                    "0x09": "0xca11"
                }
            },
            "0x0000000000000000000000000000000000001100": {
                "nonce": "0x01",
                "balance": "0x00",
                "code": "0xef0001010004020001001004000000008000046001600052600060206000611000f800",
                "storage": {}
            },
            "0x0000000000000000000000000000000000005000": {
                "nonce": "0x01",
                "balance": "0x00",
                "code": "0xef0001010004020001003f030001004d040000000080000460016000350160005263cc12ea7e606052602060006000356000ec003d15e1000c6060600060203e60606020fd6001600035016020525b60405260606020fdef0001010004020001003a040000000080000460016000350160005261ca1160605260206000615000f93d15e1000c6060600060203e60606020fd6001600035016020525b60405260606020fd",
                "storage": {}
            },
            "0x000f3df6d732807ef1319fb7b8bb8522d0beac02": {
                "nonce": "0x01",
                "balance": "0x00",
                "code": "0x3373fffffffffffffffffffffffffffffffffffffffe14604d57602036146024575f5ffd5b5f35801560495762001fff810690815414603c575f5ffd5b62001fff01545f5260205ff35b5f5ffd5b62001fff42064281555f359062001fff015500",
                "storage": {
                    "0x03e8": "0x03e8"
                }
            },
            "0x2adc25665018aa1fe0e6bc666dac8fc2697ff9ba": {
                "nonce": "0x00",
                "balance": "0x02f9f937",
                "code": "0x",
                "storage": {}
            },
            "0xa94f5374fce5edbc8e2a8697c15331677e6ebf0b": {
                "nonce": "0x01",
                "balance": "0x3635c9adc5d4b4169e",
                "code": "0x",
                "storage": {}
            }
        },
        "lastblockhash": "0x1a43cd5aa6a4ba9400d5693b9781eeb7066e0bad443429ceb97219248498e2b4",
        "engineNewPayloads": [
            {
                "params": [
                    {
                        "parentHash": "0x0c437239918008ebf92ba20f2a4256e9e9371a0fdb6b0617beef1dfe308b332c",
                        "feeRecipient": "0x2adc25665018aa1fe0e6bc666dac8fc2697ff9ba",
                        "stateRoot": "0xbd11c2031291bc62cadfcedb69a1185a13c49eb00bdf521f5bc82338a0fc8b6b",
                        "receiptsRoot": "0xc7b97a951322ddd66d92e0206bcc48c6c9cada0836174ae8f295cbbde6832173",
                        "logsBloom": "0x00000000000000000000000000000000000000000000000000000000000000000000000000000000000000000000000000000000000000000000000000000000000000000000000000000000000000000000000000000000000000000000000000000000000000000000000000000000000000000000000000000000000000000000000000000000000000000000000000000000000000000000000000000000000000000000000000000000000000000000000000000000000000000000000000000000000000000000000000000000000000000000000000000000000000000000000000000000000000000000000000000000000000000000000000000000",
                        "blockNumber": "0x1",
                        "gasLimit": "0xb766917c3f46",
                        "gasUsed": "0xfdfdbd",
                        "timestamp": "0x3e8",
                        "extraData": "0x00",
                        "prevRandao": "0x0000000000000000000000000000000000000000000000000000000000000000",
                        "baseFeePerGas": "0x7",
                        "blobGasUsed": "0x0",
                        "excessBlobGas": "0x0",
                        "blockHash": "0x1a43cd5aa6a4ba9400d5693b9781eeb7066e0bad443429ceb97219248498e2b4",
                        "transactions": [
                            "0xf863800a86b766917c3f46940000000000000000000000000000000000001000808026a070e1b9cc58598fbd49fe981fe9aba2194d945861a0d928f0156f7e3d31838637a07f45463c6ec41c405a85cde964606f2a5c19e01f786984766a6b8192d6072ccb"
                        ],
                        "withdrawals": []
                    },
                    [],
                    "0x0000000000000000000000000000000000000000000000000000000000000000"
                ],
                "newPayloadVersion": "3",
                "forkchoiceUpdatedVersion": "3"
            }
        ],
        "_info": {
            "hash": "0x210cfeb62777143924d1c1bb5a4e5fcd15d4379501a4d5b62b1fc3804b7dc379",
            "comment": "`execution-spec-tests` generated test",
            "filling-transition-tool": "evmone-t8n 0.12.0+commit.3f7a16e3",
            "description": "Test function documentation:\n\n    Test EOFCREATE handles msg depth limit correctly (1024).\n    NOTE: due to block gas limit and the 63/64th rule this limit is unlikely to be hit\n          on mainnet.\n    NOTE: See `tests/prague/eip7692_eof_v1/eip7069_extcall/test_calls.py::test_eof_calls_msg_depth`\n          for more explanations and comments. Most notable deviation from that test is that here\n          calls and `EOFCREATE`s alternate in order to reach the max depth. `who_fails` decides\n          whether the failing depth 1024 will be on a call or on an `EOFCREATE` to happen.",
            "url": "https://github.com/ethereum/execution-spec-tests/blob/eip7692@v1.0.9/tests/prague/eip7692_eof_v1/eip7620_eof_create/test_eofcreate_failures.py#L658",
            "reference-spec": "https://github.com/ethereum/EIPs/blob/master/EIPS/eip-7620.md",
            "reference-spec-version": "52ddbcdddcf72dd72427c319f2beddeb468e1737"
        }
    },
    "tests/prague/eip7692_eof_v1/eip7620_eof_create/test_eofcreate_failures.py::test_eof_eofcreate_msg_depth[fork_CancunEIP7692-blockchain_test_engine-create_fails-opcode_EXTCALL]": {
        "network": "Prague",
        "genesisBlockHeader": {
            "parentHash": "0x0000000000000000000000000000000000000000000000000000000000000000",
            "uncleHash": "0x1dcc4de8dec75d7aab85b567b6ccd41ad312451b948a7413f0a142fd40d49347",
            "coinbase": "0x0000000000000000000000000000000000000000",
            "stateRoot": "0xed5a0434e8f8f2cc1efdd6d8286ce2ef6e9b94c1e9f3fcf84e88080dba7b249f",
            "transactionsTrie": "0x56e81f171bcc55a6ff8345e692c0f86e5b48e01b996cadc001622fb5e363b421",
            "receiptTrie": "0x56e81f171bcc55a6ff8345e692c0f86e5b48e01b996cadc001622fb5e363b421",
            "bloom": "0x00000000000000000000000000000000000000000000000000000000000000000000000000000000000000000000000000000000000000000000000000000000000000000000000000000000000000000000000000000000000000000000000000000000000000000000000000000000000000000000000000000000000000000000000000000000000000000000000000000000000000000000000000000000000000000000000000000000000000000000000000000000000000000000000000000000000000000000000000000000000000000000000000000000000000000000000000000000000000000000000000000000000000000000000000000000",
            "difficulty": "0x00",
            "number": "0x00",
            "gasLimit": "0xb766917c3f46",
            "gasUsed": "0x00",
            "timestamp": "0x00",
            "extraData": "0x00",
            "mixHash": "0x0000000000000000000000000000000000000000000000000000000000000000",
            "nonce": "0x0000000000000000",
            "baseFeePerGas": "0x07",
            "withdrawalsRoot": "0x56e81f171bcc55a6ff8345e692c0f86e5b48e01b996cadc001622fb5e363b421",
            "blobGasUsed": "0x00",
            "excessBlobGas": "0x00",
            "parentBeaconBlockRoot": "0x0000000000000000000000000000000000000000000000000000000000000000",
            "hash": "0x5ef195a1f63674586ea80751da93a661d03a3ef2636033a92be2ab7859cf948d"
        },
        "pre": {
            "0x000f3df6d732807ef1319fb7b8bb8522d0beac02": {
                "nonce": "0x01",
                "balance": "0x00",
                "code": "0x3373fffffffffffffffffffffffffffffffffffffffe14604d57602036146024575f5ffd5b5f35801560495762001fff810690815414603c575f5ffd5b62001fff01545f5260205ff35b5f5ffd5b62001fff42064281555f359062001fff015500",
                "storage": {}
            },
            "0xa94f5374fce5edbc8e2a8697c15331677e6ebf0b": {
                "nonce": "0x00",
                "balance": "0x3635c9adc5dea00000",
                "code": "0x",
                "storage": {}
            },
            "0x0000000000000000000000000000000000005000": {
                "nonce": "0x01",
                "balance": "0x00",
                "code": "0xef0001010004020001003f030001004f040000000080000460016000350160005263cc12ea7e606052602060006000356000ec003d15e1000c6060600060203e60606020fd6001600035016020525b60405260606020fdef0001010004020001003c040000000080000460016000350160005261ca11606052600060206000615000f83d15e1000c6060600060203e60606020fd6001600035016020525b60405260606020fd",
                "storage": {}
            },
            "0x0000000000000000000000000000000000001000": {
                "nonce": "0x01",
                "balance": "0x00",
                "code": "0xef000101000402000100290400000000800004600035600052600060206000615000f86000f76008556020f76005556040f760095561201560015500",
                "storage": {}
            },
            "0x0000000000000000000000000000000000001100": {
                "nonce": "0x01",
                "balance": "0x00",
                "code": "0xef0001010004020001001004000000008000046001600052600060206000611000f800",
                "storage": {}
            }
        },
        "postState": {
            "0x0000000000000000000000000000000000001000": {
                "nonce": "0x01",
                "balance": "0x00",
                "code": "0xef000101000402000100290400000000800004600035600052600060206000615000f86000f76008556020f76005556040f760095561201560015500",
                "storage": {
                    "0x01": "0x2015",
                    "0x08": "0x0400",
                    "0x09": "0xcc12ea7e"
                }
            },
            "0x0000000000000000000000000000000000001100": {
                "nonce": "0x01",
                "balance": "0x00",
                "code": "0xef0001010004020001001004000000008000046001600052600060206000611000f800",
                "storage": {}
            },
            "0x0000000000000000000000000000000000005000": {
                "nonce": "0x01",
                "balance": "0x00",
                "code": "0xef0001010004020001003f030001004f040000000080000460016000350160005263cc12ea7e606052602060006000356000ec003d15e1000c6060600060203e60606020fd6001600035016020525b60405260606020fdef0001010004020001003c040000000080000460016000350160005261ca11606052600060206000615000f83d15e1000c6060600060203e60606020fd6001600035016020525b60405260606020fd",
                "storage": {}
            },
            "0x000f3df6d732807ef1319fb7b8bb8522d0beac02": {
                "nonce": "0x01",
                "balance": "0x00",
                "code": "0x3373fffffffffffffffffffffffffffffffffffffffe14604d57602036146024575f5ffd5b5f35801560495762001fff810690815414603c575f5ffd5b62001fff01545f5260205ff35b5f5ffd5b62001fff42064281555f359062001fff015500",
                "storage": {
                    "0x03e8": "0x03e8"
                }
            },
            "0x2adc25665018aa1fe0e6bc666dac8fc2697ff9ba": {
                "nonce": "0x00",
                "balance": "0x02f93e9b",
                "code": "0x",
                "storage": {}
            },
            "0xa94f5374fce5edbc8e2a8697c15331677e6ebf0b": {
                "nonce": "0x01",
                "balance": "0x3635c9adc5d4b684a6",
                "code": "0x",
                "storage": {}
            }
        },
        "lastblockhash": "0x85b22d5e5d9907c32f7f91b776ed4f0958fafaf42b34d76e46bf8e7dd4c05748",
        "engineNewPayloads": [
            {
                "params": [
                    {
                        "parentHash": "0x5ef195a1f63674586ea80751da93a661d03a3ef2636033a92be2ab7859cf948d",
                        "feeRecipient": "0x2adc25665018aa1fe0e6bc666dac8fc2697ff9ba",
                        "stateRoot": "0xe8cd1866dfe633d70316b2afad55f36b968f263af709d6ed3449d7f9ca733c10",
                        "receiptsRoot": "0x84ff5acdddde6d0d93dd4c22bb564577ac3319869f009a59895ba77c19d195f5",
                        "logsBloom": "0x00000000000000000000000000000000000000000000000000000000000000000000000000000000000000000000000000000000000000000000000000000000000000000000000000000000000000000000000000000000000000000000000000000000000000000000000000000000000000000000000000000000000000000000000000000000000000000000000000000000000000000000000000000000000000000000000000000000000000000000000000000000000000000000000000000000000000000000000000000000000000000000000000000000000000000000000000000000000000000000000000000000000000000000000000000000",
                        "blockNumber": "0x1",
                        "gasLimit": "0xb766917c3f46",
                        "gasUsed": "0xfdbf89",
                        "timestamp": "0x3e8",
                        "extraData": "0x00",
                        "prevRandao": "0x0000000000000000000000000000000000000000000000000000000000000000",
                        "baseFeePerGas": "0x7",
                        "blobGasUsed": "0x0",
                        "excessBlobGas": "0x0",
                        "blockHash": "0x85b22d5e5d9907c32f7f91b776ed4f0958fafaf42b34d76e46bf8e7dd4c05748",
                        "transactions": [
                            "0xf863800a86b766917c3f46940000000000000000000000000000000000001100808025a00faae05cb7eab213d7a557bab55b65a52b1dd441e8b4d73130e13f17378cc455a0702f1786e842558dff6e0e2eb3e1ef3bd365a445e7a574d5655558610efb52aa"
                        ],
                        "withdrawals": []
                    },
                    [],
                    "0x0000000000000000000000000000000000000000000000000000000000000000"
                ],
                "newPayloadVersion": "3",
                "forkchoiceUpdatedVersion": "3"
            }
        ],
        "_info": {
            "hash": "0x7ff2287700aca771604015e586e0d4513c70dd9fc78373fab4798a4abea871bb",
            "comment": "`execution-spec-tests` generated test",
            "filling-transition-tool": "evmone-t8n 0.12.0+commit.3f7a16e3",
            "description": "Test function documentation:\n\n    Test EOFCREATE handles msg depth limit correctly (1024).\n    NOTE: due to block gas limit and the 63/64th rule this limit is unlikely to be hit\n          on mainnet.\n    NOTE: See `tests/prague/eip7692_eof_v1/eip7069_extcall/test_calls.py::test_eof_calls_msg_depth`\n          for more explanations and comments. Most notable deviation from that test is that here\n          calls and `EOFCREATE`s alternate in order to reach the max depth. `who_fails` decides\n          whether the failing depth 1024 will be on a call or on an `EOFCREATE` to happen.",
            "url": "https://github.com/ethereum/execution-spec-tests/blob/eip7692@v1.0.9/tests/prague/eip7692_eof_v1/eip7620_eof_create/test_eofcreate_failures.py#L658",
            "reference-spec": "https://github.com/ethereum/EIPs/blob/master/EIPS/eip-7620.md",
            "reference-spec-version": "52ddbcdddcf72dd72427c319f2beddeb468e1737"
        }
    },
    "tests/prague/eip7692_eof_v1/eip7620_eof_create/test_eofcreate_failures.py::test_eof_eofcreate_msg_depth[fork_CancunEIP7692-blockchain_test_engine-create_fails-opcode_EXTDELEGATECALL]": {
        "network": "Prague",
        "genesisBlockHeader": {
            "parentHash": "0x0000000000000000000000000000000000000000000000000000000000000000",
            "uncleHash": "0x1dcc4de8dec75d7aab85b567b6ccd41ad312451b948a7413f0a142fd40d49347",
            "coinbase": "0x0000000000000000000000000000000000000000",
            "stateRoot": "0xfb24c47ff8a733f1fd5bf7f129cbbb7101d0589bff8e4b1e10dbbe988dfb672c",
            "transactionsTrie": "0x56e81f171bcc55a6ff8345e692c0f86e5b48e01b996cadc001622fb5e363b421",
            "receiptTrie": "0x56e81f171bcc55a6ff8345e692c0f86e5b48e01b996cadc001622fb5e363b421",
            "bloom": "0x00000000000000000000000000000000000000000000000000000000000000000000000000000000000000000000000000000000000000000000000000000000000000000000000000000000000000000000000000000000000000000000000000000000000000000000000000000000000000000000000000000000000000000000000000000000000000000000000000000000000000000000000000000000000000000000000000000000000000000000000000000000000000000000000000000000000000000000000000000000000000000000000000000000000000000000000000000000000000000000000000000000000000000000000000000000",
            "difficulty": "0x00",
            "number": "0x00",
            "gasLimit": "0xb766917c3f46",
            "gasUsed": "0x00",
            "timestamp": "0x00",
            "extraData": "0x00",
            "mixHash": "0x0000000000000000000000000000000000000000000000000000000000000000",
            "nonce": "0x0000000000000000",
            "baseFeePerGas": "0x07",
            "withdrawalsRoot": "0x56e81f171bcc55a6ff8345e692c0f86e5b48e01b996cadc001622fb5e363b421",
            "blobGasUsed": "0x00",
            "excessBlobGas": "0x00",
            "parentBeaconBlockRoot": "0x0000000000000000000000000000000000000000000000000000000000000000",
            "hash": "0x0c437239918008ebf92ba20f2a4256e9e9371a0fdb6b0617beef1dfe308b332c"
        },
        "pre": {
            "0x000f3df6d732807ef1319fb7b8bb8522d0beac02": {
                "nonce": "0x01",
                "balance": "0x00",
                "code": "0x3373fffffffffffffffffffffffffffffffffffffffe14604d57602036146024575f5ffd5b5f35801560495762001fff810690815414603c575f5ffd5b62001fff01545f5260205ff35b5f5ffd5b62001fff42064281555f359062001fff015500",
                "storage": {}
            },
            "0xa94f5374fce5edbc8e2a8697c15331677e6ebf0b": {
                "nonce": "0x00",
                "balance": "0x3635c9adc5dea00000",
                "code": "0x",
                "storage": {}
            },
            "0x0000000000000000000000000000000000005000": {
                "nonce": "0x01",
                "balance": "0x00",
                "code": "0xef0001010004020001003f030001004d040000000080000460016000350160005263cc12ea7e606052602060006000356000ec003d15e1000c6060600060203e60606020fd6001600035016020525b60405260606020fdef0001010004020001003a040000000080000460016000350160005261ca1160605260206000615000f93d15e1000c6060600060203e60606020fd6001600035016020525b60405260606020fd",
                "storage": {}
            },
            "0x0000000000000000000000000000000000001000": {
                "nonce": "0x01",
                "balance": "0x00",
                "code": "0xef00010100040200010027040000000080000360003560005260206000615000f96000f76008556020f76005556040f760095561201560015500",
                "storage": {}
            },
            "0x0000000000000000000000000000000000001100": {
                "nonce": "0x01",
                "balance": "0x00",
                "code": "0xef0001010004020001001004000000008000046001600052600060206000611000f800",
                "storage": {}
            }
        },
        "postState": {
            "0x0000000000000000000000000000000000001000": {
                "nonce": "0x01",
                "balance": "0x00",
                "code": "0xef00010100040200010027040000000080000360003560005260206000615000f96000f76008556020f76005556040f760095561201560015500",
                "storage": {
                    "0x01": "0x2015",
                    "0x08": "0x0400",
                    "0x09": "0xcc12ea7e"
                }
            },
            "0x0000000000000000000000000000000000001100": {
                "nonce": "0x01",
                "balance": "0x00",
                "code": "0xef0001010004020001001004000000008000046001600052600060206000611000f800",
                "storage": {}
            },
            "0x0000000000000000000000000000000000005000": {
                "nonce": "0x01",
                "balance": "0x00",
                "code": "0xef0001010004020001003f030001004d040000000080000460016000350160005263cc12ea7e606052602060006000356000ec003d15e1000c6060600060203e60606020fd6001600035016020525b60405260606020fdef0001010004020001003a040000000080000460016000350160005261ca1160605260206000615000f93d15e1000c6060600060203e60606020fd6001600035016020525b60405260606020fd",
                "storage": {}
            },
            "0x000f3df6d732807ef1319fb7b8bb8522d0beac02": {
                "nonce": "0x01",
                "balance": "0x00",
                "code": "0x3373fffffffffffffffffffffffffffffffffffffffe14604d57602036146024575f5ffd5b5f35801560495762001fff810690815414603c575f5ffd5b62001fff01545f5260205ff35b5f5ffd5b62001fff42064281555f359062001fff015500",
                "storage": {
                    "0x03e8": "0x03e8"
                }
            },
            "0x2adc25665018aa1fe0e6bc666dac8fc2697ff9ba": {
                "nonce": "0x00",
                "balance": "0x02f92c9b",
                "code": "0x",
                "storage": {}
            },
            "0xa94f5374fce5edbc8e2a8697c15331677e6ebf0b": {
                "nonce": "0x01",
                "balance": "0x3635c9adc5d4b6c0a6",
                "code": "0x",
                "storage": {}
            }
        },
        "lastblockhash": "0x4576cd39ba5b2620f0a5399501696c7309d6db188070cdf6a6a2d2dc61f02237",
        "engineNewPayloads": [
            {
                "params": [
                    {
                        "parentHash": "0x0c437239918008ebf92ba20f2a4256e9e9371a0fdb6b0617beef1dfe308b332c",
                        "feeRecipient": "0x2adc25665018aa1fe0e6bc666dac8fc2697ff9ba",
                        "stateRoot": "0xf2ae56ca685d2cb2c446352aa554e05bf000a35be662fd763f0d8ea9dfc49a58",
                        "receiptsRoot": "0x30b997568ce0eda54b1ba1b976c8f045c95590df6d6bd7a4262b1ab6f26543a6",
                        "logsBloom": "0x00000000000000000000000000000000000000000000000000000000000000000000000000000000000000000000000000000000000000000000000000000000000000000000000000000000000000000000000000000000000000000000000000000000000000000000000000000000000000000000000000000000000000000000000000000000000000000000000000000000000000000000000000000000000000000000000000000000000000000000000000000000000000000000000000000000000000000000000000000000000000000000000000000000000000000000000000000000000000000000000000000000000000000000000000000000",
                        "blockNumber": "0x1",
                        "gasLimit": "0xb766917c3f46",
                        "gasUsed": "0xfdb989",
                        "timestamp": "0x3e8",
                        "extraData": "0x00",
                        "prevRandao": "0x0000000000000000000000000000000000000000000000000000000000000000",
                        "baseFeePerGas": "0x7",
                        "blobGasUsed": "0x0",
                        "excessBlobGas": "0x0",
                        "blockHash": "0x4576cd39ba5b2620f0a5399501696c7309d6db188070cdf6a6a2d2dc61f02237",
                        "transactions": [
                            "0xf863800a86b766917c3f46940000000000000000000000000000000000001100808025a00faae05cb7eab213d7a557bab55b65a52b1dd441e8b4d73130e13f17378cc455a0702f1786e842558dff6e0e2eb3e1ef3bd365a445e7a574d5655558610efb52aa"
                        ],
                        "withdrawals": []
                    },
                    [],
                    "0x0000000000000000000000000000000000000000000000000000000000000000"
                ],
                "newPayloadVersion": "3",
                "forkchoiceUpdatedVersion": "3"
            }
        ],
        "_info": {
            "hash": "0x6b24a9caccbaafd62a2f24fb0df98c9d08f91a7b08157c62614758bb430884e1",
            "comment": "`execution-spec-tests` generated test",
            "filling-transition-tool": "evmone-t8n 0.12.0+commit.3f7a16e3",
            "description": "Test function documentation:\n\n    Test EOFCREATE handles msg depth limit correctly (1024).\n    NOTE: due to block gas limit and the 63/64th rule this limit is unlikely to be hit\n          on mainnet.\n    NOTE: See `tests/prague/eip7692_eof_v1/eip7069_extcall/test_calls.py::test_eof_calls_msg_depth`\n          for more explanations and comments. Most notable deviation from that test is that here\n          calls and `EOFCREATE`s alternate in order to reach the max depth. `who_fails` decides\n          whether the failing depth 1024 will be on a call or on an `EOFCREATE` to happen.",
            "url": "https://github.com/ethereum/execution-spec-tests/blob/eip7692@v1.0.9/tests/prague/eip7692_eof_v1/eip7620_eof_create/test_eofcreate_failures.py#L658",
            "reference-spec": "https://github.com/ethereum/EIPs/blob/master/EIPS/eip-7620.md",
            "reference-spec-version": "52ddbcdddcf72dd72427c319f2beddeb468e1737"
        }
    }
}