{
    "tests/prague/eip7692_eof_v1/eip7069_extcall/test_gas.py::test_ext_calls_gas[fork_CancunEIP7692-blockchain_test_engine-EXTCALL]": {
        "network": "Prague",
        "genesisBlockHeader": {
            "parentHash": "0x0000000000000000000000000000000000000000000000000000000000000000",
            "uncleHash": "0x1dcc4de8dec75d7aab85b567b6ccd41ad312451b948a7413f0a142fd40d49347",
            "coinbase": "0x0000000000000000000000000000000000000000",
            "stateRoot": "0x11c12ebe72507be4fdc0fcffe46ef04132e9b345ebd821b86d6664c44e29f365",
            "transactionsTrie": "0x56e81f171bcc55a6ff8345e692c0f86e5b48e01b996cadc001622fb5e363b421",
            "receiptTrie": "0x56e81f171bcc55a6ff8345e692c0f86e5b48e01b996cadc001622fb5e363b421",
            "bloom": "0x00000000000000000000000000000000000000000000000000000000000000000000000000000000000000000000000000000000000000000000000000000000000000000000000000000000000000000000000000000000000000000000000000000000000000000000000000000000000000000000000000000000000000000000000000000000000000000000000000000000000000000000000000000000000000000000000000000000000000000000000000000000000000000000000000000000000000000000000000000000000000000000000000000000000000000000000000000000000000000000000000000000000000000000000000000000",
            "difficulty": "0x00",
            "number": "0x00",
            "gasLimit": "0x016345785d8a0000",
            "gasUsed": "0x00",
            "timestamp": "0x00",
            "extraData": "0x00",
            "mixHash": "0x0000000000000000000000000000000000000000000000000000000000000000",
            "nonce": "0x0000000000000000",
            "baseFeePerGas": "0x07",
            "withdrawalsRoot": "0x56e81f171bcc55a6ff8345e692c0f86e5b48e01b996cadc001622fb5e363b421",
            "blobGasUsed": "0x00",
            "excessBlobGas": "0x00",
            "parentBeaconBlockRoot": "0x0000000000000000000000000000000000000000000000000000000000000000",
            "hash": "0xdd44e2e6ebe3ce680ff0ab037434dccbedc903b41d42ee53597f28e228968ef2"
        },
        "pre": {
            "0x000f3df6d732807ef1319fb7b8bb8522d0beac02": {
                "nonce": "0x01",
                "balance": "0x00",
                "code": "0x3373fffffffffffffffffffffffffffffffffffffffe14604d57602036146024575f5ffd5b5f35801560495762001fff810690815414603c575f5ffd5b62001fff01545f5260205ff35b5f5ffd5b62001fff42064281555f359062001fff015500",
                "storage": {}
            },
            "0x0000000000000000000000000000000000001000": {
                "nonce": "0x01",
                "balance": "0x00",
                "code": "0xef00010100040200010001040000000080000000",
                "storage": {}
            },
            "0xa94f5374fce5edbc8e2a8697c15331677e6ebf0b": {
                "nonce": "0x00",
                "balance": "0x0de0b6b3a7640000",
                "code": "0x",
                "storage": {}
            },
            "0x0000000000000000000000000000000000001100": {
                "nonce": "0x01",
                "balance": "0x00",
                "code": "0xef0001010004020001001904000000008000045f5f5f73000000000000000000000000000000000000100000",
                "storage": {}
            },
            "0x0000000000000000000000000000000000001200": {
                "nonce": "0x01",
                "balance": "0x00",
                "code": "0xef0001010004020001001a04000000008000045f5f5f730000000000000000000000000000000000001000f800",
                "storage": {}
            },
            "0x0000000000000000000000000000000000001300": {
                "nonce": "0x01",
                "balance": "0x00",
                "code": "0x611200315061110031505a600060006000600060006112006207a120f1505a90035a600060006000600060006111006207a120f1505a90035a600060006000600060006112006207a120f1505a900381900361000c55900361000b5500",
                "storage": {}
            }
        },
        "postState": {
            "0x0000000000000000000000000000000000001000": {
                "nonce": "0x01",
                "balance": "0x00",
                "code": "0xef00010100040200010001040000000080000000",
                "storage": {}
            },
            "0x0000000000000000000000000000000000001100": {
                "nonce": "0x01",
                "balance": "0x00",
                "code": "0xef0001010004020001001904000000008000045f5f5f73000000000000000000000000000000000000100000",
                "storage": {}
            },
            "0x0000000000000000000000000000000000001200": {
                "nonce": "0x01",
                "balance": "0x00",
                "code": "0xef0001010004020001001a04000000008000045f5f5f730000000000000000000000000000000000001000f800",
                "storage": {}
            },
            "0x0000000000000000000000000000000000001300": {
                "nonce": "0x01",
                "balance": "0x00",
                "code": "0x611200315061110031505a600060006000600060006112006207a120f1505a90035a600060006000600060006111006207a120f1505a90035a600060006000600060006112006207a120f1505a900381900361000c55900361000b5500",
                "storage": {
                    "0x0b": "0x0a28",
                    "0x0c": "0x64"
                }
            },
            "0x000f3df6d732807ef1319fb7b8bb8522d0beac02": {
                "nonce": "0x01",
                "balance": "0x00",
                "code": "0x3373fffffffffffffffffffffffffffffffffffffffe14604d57602036146024575f5ffd5b5f35801560495762001fff810690815414603c575f5ffd5b62001fff01545f5260205ff35b5f5ffd5b62001fff42064281555f359062001fff015500",
                "storage": {
                    "0x03e8": "0x03e8"
                }
            },
            "0x2adc25665018aa1fe0e6bc666dac8fc2697ff9ba": {
                "nonce": "0x00",
                "balance": "0x035dff",
                "code": "0x",
                "storage": {}
            },
            "0xa94f5374fce5edbc8e2a8697c15331677e6ebf0b": {
                "nonce": "0x01",
                "balance": "0x0de0b6b3a758c6ae",
                "code": "0x",
                "storage": {}
            }
        },
        "lastblockhash": "0x88c995c0d6a3ea4aad5ac45479eb9c09db989404e423f2fc7f9ba016a5543cae",
        "engineNewPayloads": [
            {
                "params": [
                    {
                        "parentHash": "0xdd44e2e6ebe3ce680ff0ab037434dccbedc903b41d42ee53597f28e228968ef2",
                        "feeRecipient": "0x2adc25665018aa1fe0e6bc666dac8fc2697ff9ba",
                        "stateRoot": "0x03e40b260a4bf5fe8c51bb6ffbc1db1956e734397b48579c60ee39c8a5840055",
                        "receiptsRoot": "0x0c21d15b9d6b9a4d482bd542c27979a5ae477e82ec14785569feed3b17da2a9c",
                        "logsBloom": "0x00000000000000000000000000000000000000000000000000000000000000000000000000000000000000000000000000000000000000000000000000000000000000000000000000000000000000000000000000000000000000000000000000000000000000000000000000000000000000000000000000000000000000000000000000000000000000000000000000000000000000000000000000000000000000000000000000000000000000000000000000000000000000000000000000000000000000000000000000000000000000000000000000000000000000000000000000000000000000000000000000000000000000000000000000000000",
                        "blockNumber": "0x1",
                        "gasLimit": "0x16345785d8a0000",
                        "gasUsed": "0x11f55",
                        "timestamp": "0x3e8",
                        "extraData": "0x00",
                        "prevRandao": "0x0000000000000000000000000000000000000000000000000000000000000000",
                        "baseFeePerGas": "0x7",
                        "blobGasUsed": "0x0",
                        "excessBlobGas": "0x0",
                        "blockHash": "0x88c995c0d6a3ea4aad5ac45479eb9c09db989404e423f2fc7f9ba016a5543cae",
                        "transactions": [
                            "0xf860800a831e8480940000000000000000000000000000000000001300808025a0ff007e50ab2c3716e3bff62281b2ec031dd155c0f735510fe3fcfc7ee75d6224a06e9f9cc74bb9dc1431882fc17f668cc4642d23b672baff108e5d06b46533e2d3"
                        ],
                        "withdrawals": []
                    },
                    [],
                    "0x0000000000000000000000000000000000000000000000000000000000000000"
                ],
                "newPayloadVersion": "3",
                "forkchoiceUpdatedVersion": "3"
            }
        ],
        "_info": {
            "hash": "0x8e766250af840742242b28dfc2812f2ade8e805df9e1df8f93b869ad4dbf843b",
            "comment": "`execution-spec-tests` generated test",
            "filling-transition-tool": "evmone-t8n 0.12.0+commit.3f7a16e3",
            "description": "Test function documentation:\nTests 4 variations of EXT*CALL gas, both warm and cold",
            "url": "https://github.com/ethereum/execution-spec-tests/blob/eip7692@v1.0.9/tests/prague/eip7692_eof_v1/eip7069_extcall/test_gas.py#L113",
            "reference-spec": "https://github.com/ethereum/EIPs/blob/master/EIPS/eip-7069.md",
            "reference-spec-version": "1795943aeacc86131d5ab6bb3d65824b3b1d4cad"
        }
    },
    "tests/prague/eip7692_eof_v1/eip7069_extcall/test_gas.py::test_ext_calls_gas[fork_CancunEIP7692-blockchain_test_engine-EXTCALL_with_value]": {
        "network": "Prague",
        "genesisBlockHeader": {
            "parentHash": "0x0000000000000000000000000000000000000000000000000000000000000000",
            "uncleHash": "0x1dcc4de8dec75d7aab85b567b6ccd41ad312451b948a7413f0a142fd40d49347",
            "coinbase": "0x0000000000000000000000000000000000000000",
            "stateRoot": "0x93dee6ff2cdbd2124a3d4d496d03196227cdedd3cd47ca4398502df2ffff1c81",
            "transactionsTrie": "0x56e81f171bcc55a6ff8345e692c0f86e5b48e01b996cadc001622fb5e363b421",
            "receiptTrie": "0x56e81f171bcc55a6ff8345e692c0f86e5b48e01b996cadc001622fb5e363b421",
            "bloom": "0x00000000000000000000000000000000000000000000000000000000000000000000000000000000000000000000000000000000000000000000000000000000000000000000000000000000000000000000000000000000000000000000000000000000000000000000000000000000000000000000000000000000000000000000000000000000000000000000000000000000000000000000000000000000000000000000000000000000000000000000000000000000000000000000000000000000000000000000000000000000000000000000000000000000000000000000000000000000000000000000000000000000000000000000000000000000",
            "difficulty": "0x00",
            "number": "0x00",
            "gasLimit": "0x016345785d8a0000",
            "gasUsed": "0x00",
            "timestamp": "0x00",
            "extraData": "0x00",
            "mixHash": "0x0000000000000000000000000000000000000000000000000000000000000000",
            "nonce": "0x0000000000000000",
            "baseFeePerGas": "0x07",
            "withdrawalsRoot": "0x56e81f171bcc55a6ff8345e692c0f86e5b48e01b996cadc001622fb5e363b421",
            "blobGasUsed": "0x00",
            "excessBlobGas": "0x00",
            "parentBeaconBlockRoot": "0x0000000000000000000000000000000000000000000000000000000000000000",
            "hash": "0x435e0da55e5aaf528b31a2d4be1df1b6c31dfccb4c56fea38c833d1c0fd0bd56"
        },
        "pre": {
            "0x000f3df6d732807ef1319fb7b8bb8522d0beac02": {
                "nonce": "0x01",
                "balance": "0x00",
                "code": "0x3373fffffffffffffffffffffffffffffffffffffffe14604d57602036146024575f5ffd5b5f35801560495762001fff810690815414603c575f5ffd5b62001fff01545f5260205ff35b5f5ffd5b62001fff42064281555f359062001fff015500",
                "storage": {}
            },
            "0x0000000000000000000000000000000000001000": {
                "nonce": "0x01",
                "balance": "0x00",
                "code": "0xef00010100040200010001040000000080000000",
                "storage": {}
            },
            "0xa94f5374fce5edbc8e2a8697c15331677e6ebf0b": {
                "nonce": "0x00",
                "balance": "0x0de0b6b3a7640000",
                "code": "0x",
                "storage": {}
            },
            "0x0000000000000000000000000000000000001100": {
                "nonce": "0x01",
                "balance": "0x00",
                "code": "0xef0001010004020001001a040000000080000460015f5f73000000000000000000000000000000000000100000",
                "storage": {}
            },
            "0x0000000000000000000000000000000000001200": {
                "nonce": "0x01",
                "balance": "0x00",
                "code": "0xef0001010004020001001b040000000080000460015f5f730000000000000000000000000000000000001000f800",
                "storage": {}
            },
            "0x0000000000000000000000000000000000001300": {
                "nonce": "0x01",
                "balance": "0x00",
                "code": "0x611200315061110031505a600060006000600060006112006207a120f1505a90035a600060006000600060006111006207a120f1505a90035a600060006000600060006112006207a120f1505a900381900361000c55900361000b5500",
                "storage": {}
            }
        },
        "postState": {
            "0x0000000000000000000000000000000000001000": {
                "nonce": "0x01",
                "balance": "0x00",
                "code": "0xef00010100040200010001040000000080000000",
                "storage": {}
            },
            "0x0000000000000000000000000000000000001100": {
                "nonce": "0x01",
                "balance": "0x00",
                "code": "0xef0001010004020001001a040000000080000460015f5f73000000000000000000000000000000000000100000",
                "storage": {}
            },
            "0x0000000000000000000000000000000000001200": {
                "nonce": "0x01",
                "balance": "0x00",
                "code": "0xef0001010004020001001b040000000080000460015f5f730000000000000000000000000000000000001000f800",
                "storage": {}
            },
            "0x0000000000000000000000000000000000001300": {
                "nonce": "0x01",
                "balance": "0x00",
                "code": "0x611200315061110031505a600060006000600060006112006207a120f1505a90035a600060006000600060006111006207a120f1505a90035a600060006000600060006112006207a120f1505a900381900361000c55900361000b5500",
                "storage": {
                    "0x0b": "0x2d50",
                    "0x0c": "0x238c"
                }
            },
            "0x000f3df6d732807ef1319fb7b8bb8522d0beac02": {
                "nonce": "0x01",
                "balance": "0x00",
                "code": "0x3373fffffffffffffffffffffffffffffffffffffffe14604d57602036146024575f5ffd5b5f35801560495762001fff810690815414603c575f5ffd5b62001fff01545f5260205ff35b5f5ffd5b62001fff42064281555f359062001fff015500",
                "storage": {
                    "0x03e8": "0x03e8"
                }
            },
            "0x2adc25665018aa1fe0e6bc666dac8fc2697ff9ba": {
                "nonce": "0x00",
                "balance": "0x0430f8",
                "code": "0x",
                "storage": {}
            },
            "0xa94f5374fce5edbc8e2a8697c15331677e6ebf0b": {
                "nonce": "0x01",
                "balance": "0x0de0b6b3a7560770",
                "code": "0x",
                "storage": {}
            }
        },
        "lastblockhash": "0x42838c64e6214d8fa6b2535a2f5630391990f4e46a192d48491535e2d62afb1c",
        "engineNewPayloads": [
            {
                "params": [
                    {
                        "parentHash": "0x435e0da55e5aaf528b31a2d4be1df1b6c31dfccb4c56fea38c833d1c0fd0bd56",
                        "feeRecipient": "0x2adc25665018aa1fe0e6bc666dac8fc2697ff9ba",
                        "stateRoot": "0x3370f0edab257730b81c12b708a99df0422b8d19b921f1fcb46ff67522fef281",
                        "receiptsRoot": "0x9b73106b9b94aa85f41aebd68c269dd47294ada6818d3b6e45ec9e6b89b39df3",
                        "logsBloom": "0x00000000000000000000000000000000000000000000000000000000000000000000000000000000000000000000000000000000000000000000000000000000000000000000000000000000000000000000000000000000000000000000000000000000000000000000000000000000000000000000000000000000000000000000000000000000000000000000000000000000000000000000000000000000000000000000000000000000000000000000000000000000000000000000000000000000000000000000000000000000000000000000000000000000000000000000000000000000000000000000000000000000000000000000000000000000",
                        "blockNumber": "0x1",
                        "gasLimit": "0x16345785d8a0000",
                        "gasUsed": "0x165a8",
                        "timestamp": "0x3e8",
                        "extraData": "0x00",
                        "prevRandao": "0x0000000000000000000000000000000000000000000000000000000000000000",
                        "baseFeePerGas": "0x7",
                        "blobGasUsed": "0x0",
                        "excessBlobGas": "0x0",
                        "blockHash": "0x42838c64e6214d8fa6b2535a2f5630391990f4e46a192d48491535e2d62afb1c",
                        "transactions": [
                            "0xf860800a831e8480940000000000000000000000000000000000001300808025a0ff007e50ab2c3716e3bff62281b2ec031dd155c0f735510fe3fcfc7ee75d6224a06e9f9cc74bb9dc1431882fc17f668cc4642d23b672baff108e5d06b46533e2d3"
                        ],
                        "withdrawals": []
                    },
                    [],
                    "0x0000000000000000000000000000000000000000000000000000000000000000"
                ],
                "newPayloadVersion": "3",
                "forkchoiceUpdatedVersion": "3"
            }
        ],
        "_info": {
            "hash": "0x16c9ee079df329a1e07bdb2b248d806cb7e9b30674971a90f21309420824af0f",
            "comment": "`execution-spec-tests` generated test",
            "filling-transition-tool": "evmone-t8n 0.12.0+commit.3f7a16e3",
            "description": "Test function documentation:\nTests 4 variations of EXT*CALL gas, both warm and cold",
            "url": "https://github.com/ethereum/execution-spec-tests/blob/eip7692@v1.0.9/tests/prague/eip7692_eof_v1/eip7069_extcall/test_gas.py#L113",
            "reference-spec": "https://github.com/ethereum/EIPs/blob/master/EIPS/eip-7069.md",
            "reference-spec-version": "1795943aeacc86131d5ab6bb3d65824b3b1d4cad"
        }
    },
    "tests/prague/eip7692_eof_v1/eip7069_extcall/test_gas.py::test_ext_calls_gas[fork_CancunEIP7692-blockchain_test_engine-EXTSTATICCALL]": {
        "network": "Prague",
        "genesisBlockHeader": {
            "parentHash": "0x0000000000000000000000000000000000000000000000000000000000000000",
            "uncleHash": "0x1dcc4de8dec75d7aab85b567b6ccd41ad312451b948a7413f0a142fd40d49347",
            "coinbase": "0x0000000000000000000000000000000000000000",
            "stateRoot": "0x6eb9e96e694ef42a3879599630ea672dc13a8c2a828194e0168c75f021576932",
            "transactionsTrie": "0x56e81f171bcc55a6ff8345e692c0f86e5b48e01b996cadc001622fb5e363b421",
            "receiptTrie": "0x56e81f171bcc55a6ff8345e692c0f86e5b48e01b996cadc001622fb5e363b421",
            "bloom": "0x00000000000000000000000000000000000000000000000000000000000000000000000000000000000000000000000000000000000000000000000000000000000000000000000000000000000000000000000000000000000000000000000000000000000000000000000000000000000000000000000000000000000000000000000000000000000000000000000000000000000000000000000000000000000000000000000000000000000000000000000000000000000000000000000000000000000000000000000000000000000000000000000000000000000000000000000000000000000000000000000000000000000000000000000000000000",
            "difficulty": "0x00",
            "number": "0x00",
            "gasLimit": "0x016345785d8a0000",
            "gasUsed": "0x00",
            "timestamp": "0x00",
            "extraData": "0x00",
            "mixHash": "0x0000000000000000000000000000000000000000000000000000000000000000",
            "nonce": "0x0000000000000000",
            "baseFeePerGas": "0x07",
            "withdrawalsRoot": "0x56e81f171bcc55a6ff8345e692c0f86e5b48e01b996cadc001622fb5e363b421",
            "blobGasUsed": "0x00",
            "excessBlobGas": "0x00",
            "parentBeaconBlockRoot": "0x0000000000000000000000000000000000000000000000000000000000000000",
            "hash": "0x40e8026545a52b87953152964dd77edf678d42cb95afb9a431f78a2158d70ceb"
        },
        "pre": {
            "0x000f3df6d732807ef1319fb7b8bb8522d0beac02": {
                "nonce": "0x01",
                "balance": "0x00",
                "code": "0x3373fffffffffffffffffffffffffffffffffffffffe14604d57602036146024575f5ffd5b5f35801560495762001fff810690815414603c575f5ffd5b62001fff01545f5260205ff35b5f5ffd5b62001fff42064281555f359062001fff015500",
                "storage": {}
            },
            "0x0000000000000000000000000000000000001000": {
                "nonce": "0x01",
                "balance": "0x00",
                "code": "0xef00010100040200010001040000000080000000",
                "storage": {}
            },
            "0xa94f5374fce5edbc8e2a8697c15331677e6ebf0b": {
                "nonce": "0x00",
                "balance": "0x0de0b6b3a7640000",
                "code": "0x",
                "storage": {}
            },
            "0x0000000000000000000000000000000000001100": {
                "nonce": "0x01",
                "balance": "0x00",
                "code": "0xef0001010004020001001904000000008000035b5f5f73000000000000000000000000000000000000100000",
                "storage": {}
            },
            "0x0000000000000000000000000000000000001200": {
                "nonce": "0x01",
                "balance": "0x00",
                "code": "0xef0001010004020001001a04000000008000035b5f5f730000000000000000000000000000000000001000f900",
                "storage": {}
            },
            "0x0000000000000000000000000000000000001300": {
                "nonce": "0x01",
                "balance": "0x00",
                "code": "0x611200315061110031505a600060006000600060006112006207a120f1505a90035a600060006000600060006111006207a120f1505a90035a600060006000600060006112006207a120f1505a900381900361000c55900361000b5500",
                "storage": {}
            }
        },
        "postState": {
            "0x0000000000000000000000000000000000001000": {
                "nonce": "0x01",
                "balance": "0x00",
                "code": "0xef00010100040200010001040000000080000000",
                "storage": {}
            },
            "0x0000000000000000000000000000000000001100": {
                "nonce": "0x01",
                "balance": "0x00",
                "code": "0xef0001010004020001001904000000008000035b5f5f73000000000000000000000000000000000000100000",
                "storage": {}
            },
            "0x0000000000000000000000000000000000001200": {
                "nonce": "0x01",
                "balance": "0x00",
                "code": "0xef0001010004020001001a04000000008000035b5f5f730000000000000000000000000000000000001000f900",
                "storage": {}
            },
            "0x0000000000000000000000000000000000001300": {
                "nonce": "0x01",
                "balance": "0x00",
                "code": "0x611200315061110031505a600060006000600060006112006207a120f1505a90035a600060006000600060006111006207a120f1505a90035a600060006000600060006112006207a120f1505a900381900361000c55900361000b5500",
                "storage": {
                    "0x0b": "0x0a28",
                    "0x0c": "0x64"
                }
            },
            "0x000f3df6d732807ef1319fb7b8bb8522d0beac02": {
                "nonce": "0x01",
                "balance": "0x00",
                "code": "0x3373fffffffffffffffffffffffffffffffffffffffe14604d57602036146024575f5ffd5b5f35801560495762001fff810690815414603c575f5ffd5b62001fff01545f5260205ff35b5f5ffd5b62001fff42064281555f359062001fff015500",
                "storage": {
                    "0x03e8": "0x03e8"
                }
            },
            "0x2adc25665018aa1fe0e6bc666dac8fc2697ff9ba": {
                "nonce": "0x00",
                "balance": "0x035df6",
                "code": "0x",
                "storage": {}
            },
            "0xa94f5374fce5edbc8e2a8697c15331677e6ebf0b": {
                "nonce": "0x01",
                "balance": "0x0de0b6b3a758c6cc",
                "code": "0x",
                "storage": {}
            }
        },
        "lastblockhash": "0x1e21621357414609310cd21e6c7d706d2f3099720bb7a95a486c80bffaae8544",
        "engineNewPayloads": [
            {
                "params": [
                    {
                        "parentHash": "0x40e8026545a52b87953152964dd77edf678d42cb95afb9a431f78a2158d70ceb",
                        "feeRecipient": "0x2adc25665018aa1fe0e6bc666dac8fc2697ff9ba",
                        "stateRoot": "0x2d45be8e2c0322768a565194885db80c888794dd4ff950658983dd615cdc8720",
                        "receiptsRoot": "0xf986f1d85c198997224851d9f3969b1d7eb478e72e948601b36358ebb691c5ee",
                        "logsBloom": "0x00000000000000000000000000000000000000000000000000000000000000000000000000000000000000000000000000000000000000000000000000000000000000000000000000000000000000000000000000000000000000000000000000000000000000000000000000000000000000000000000000000000000000000000000000000000000000000000000000000000000000000000000000000000000000000000000000000000000000000000000000000000000000000000000000000000000000000000000000000000000000000000000000000000000000000000000000000000000000000000000000000000000000000000000000000000",
                        "blockNumber": "0x1",
                        "gasLimit": "0x16345785d8a0000",
                        "gasUsed": "0x11f52",
                        "timestamp": "0x3e8",
                        "extraData": "0x00",
                        "prevRandao": "0x0000000000000000000000000000000000000000000000000000000000000000",
                        "baseFeePerGas": "0x7",
                        "blobGasUsed": "0x0",
                        "excessBlobGas": "0x0",
                        "blockHash": "0x1e21621357414609310cd21e6c7d706d2f3099720bb7a95a486c80bffaae8544",
                        "transactions": [
                            "0xf860800a831e8480940000000000000000000000000000000000001300808025a0ff007e50ab2c3716e3bff62281b2ec031dd155c0f735510fe3fcfc7ee75d6224a06e9f9cc74bb9dc1431882fc17f668cc4642d23b672baff108e5d06b46533e2d3"
                        ],
                        "withdrawals": []
                    },
                    [],
                    "0x0000000000000000000000000000000000000000000000000000000000000000"
                ],
                "newPayloadVersion": "3",
                "forkchoiceUpdatedVersion": "3"
            }
        ],
        "_info": {
            "hash": "0xd0c9cd9b48e68c23ede292eaf2e27e7b130d8428740d10d4c3aa71454d45bec3",
            "comment": "`execution-spec-tests` generated test",
            "filling-transition-tool": "evmone-t8n 0.12.0+commit.3f7a16e3",
            "description": "Test function documentation:\nTests 4 variations of EXT*CALL gas, both warm and cold",
            "url": "https://github.com/ethereum/execution-spec-tests/blob/eip7692@v1.0.9/tests/prague/eip7692_eof_v1/eip7069_extcall/test_gas.py#L113",
            "reference-spec": "https://github.com/ethereum/EIPs/blob/master/EIPS/eip-7069.md",
            "reference-spec-version": "1795943aeacc86131d5ab6bb3d65824b3b1d4cad"
        }
    },
    "tests/prague/eip7692_eof_v1/eip7069_extcall/test_gas.py::test_ext_calls_gas[fork_CancunEIP7692-blockchain_test_engine-EXTDELEGATECALL]": {
        "network": "Prague",
        "genesisBlockHeader": {
            "parentHash": "0x0000000000000000000000000000000000000000000000000000000000000000",
            "uncleHash": "0x1dcc4de8dec75d7aab85b567b6ccd41ad312451b948a7413f0a142fd40d49347",
            "coinbase": "0x0000000000000000000000000000000000000000",
            "stateRoot": "0x8dbea1fc8369136b496e64d5a176bf6ab8b74557ba4c6b7e689f893de1b7f8a9",
            "transactionsTrie": "0x56e81f171bcc55a6ff8345e692c0f86e5b48e01b996cadc001622fb5e363b421",
            "receiptTrie": "0x56e81f171bcc55a6ff8345e692c0f86e5b48e01b996cadc001622fb5e363b421",
            "bloom": "0x00000000000000000000000000000000000000000000000000000000000000000000000000000000000000000000000000000000000000000000000000000000000000000000000000000000000000000000000000000000000000000000000000000000000000000000000000000000000000000000000000000000000000000000000000000000000000000000000000000000000000000000000000000000000000000000000000000000000000000000000000000000000000000000000000000000000000000000000000000000000000000000000000000000000000000000000000000000000000000000000000000000000000000000000000000000",
            "difficulty": "0x00",
            "number": "0x00",
            "gasLimit": "0x016345785d8a0000",
            "gasUsed": "0x00",
            "timestamp": "0x00",
            "extraData": "0x00",
            "mixHash": "0x0000000000000000000000000000000000000000000000000000000000000000",
            "nonce": "0x0000000000000000",
            "baseFeePerGas": "0x07",
            "withdrawalsRoot": "0x56e81f171bcc55a6ff8345e692c0f86e5b48e01b996cadc001622fb5e363b421",
            "blobGasUsed": "0x00",
            "excessBlobGas": "0x00",
            "parentBeaconBlockRoot": "0x0000000000000000000000000000000000000000000000000000000000000000",
            "hash": "0x15387defb6c8abe437e27866475eea7486a896d47246cd9fae64c3b44196dbd3"
        },
        "pre": {
            "0x000f3df6d732807ef1319fb7b8bb8522d0beac02": {
                "nonce": "0x01",
                "balance": "0x00",
                "code": "0x3373fffffffffffffffffffffffffffffffffffffffe14604d57602036146024575f5ffd5b5f35801560495762001fff810690815414603c575f5ffd5b62001fff01545f5260205ff35b5f5ffd5b62001fff42064281555f359062001fff015500",
                "storage": {}
            },
            "0x0000000000000000000000000000000000001000": {
                "nonce": "0x01",
                "balance": "0x00",
                "code": "0xef00010100040200010001040000000080000000",
                "storage": {}
            },
            "0xa94f5374fce5edbc8e2a8697c15331677e6ebf0b": {
                "nonce": "0x00",
                "balance": "0x0de0b6b3a7640000",
                "code": "0x",
                "storage": {}
            },
            "0x0000000000000000000000000000000000001100": {
                "nonce": "0x01",
                "balance": "0x00",
                "code": "0xef0001010004020001001904000000008000035b5f5f73000000000000000000000000000000000000100000",
                "storage": {}
            },
            "0x0000000000000000000000000000000000001200": {
                "nonce": "0x01",
                "balance": "0x00",
                "code": "0xef0001010004020001001a04000000008000035b5f5f730000000000000000000000000000000000001000fb00",
                "storage": {}
            },
            "0x0000000000000000000000000000000000001300": {
                "nonce": "0x01",
                "balance": "0x00",
                "code": "0x611200315061110031505a600060006000600060006112006207a120f1505a90035a600060006000600060006111006207a120f1505a90035a600060006000600060006112006207a120f1505a900381900361000c55900361000b5500",
                "storage": {}
            }
        },
        "postState": {
            "0x0000000000000000000000000000000000001000": {
                "nonce": "0x01",
                "balance": "0x00",
                "code": "0xef00010100040200010001040000000080000000",
                "storage": {}
            },
            "0x0000000000000000000000000000000000001100": {
                "nonce": "0x01",
                "balance": "0x00",
                "code": "0xef0001010004020001001904000000008000035b5f5f73000000000000000000000000000000000000100000",
                "storage": {}
            },
            "0x0000000000000000000000000000000000001200": {
                "nonce": "0x01",
                "balance": "0x00",
                "code": "0xef0001010004020001001a04000000008000035b5f5f730000000000000000000000000000000000001000fb00",
                "storage": {}
            },
            "0x0000000000000000000000000000000000001300": {
                "nonce": "0x01",
                "balance": "0x00",
                "code": "0x611200315061110031505a600060006000600060006112006207a120f1505a90035a600060006000600060006111006207a120f1505a90035a600060006000600060006112006207a120f1505a900381900361000c55900361000b5500",
                "storage": {
                    "0x0b": "0x0a28",
                    "0x0c": "0x64"
                }
            },
            "0x000f3df6d732807ef1319fb7b8bb8522d0beac02": {
                "nonce": "0x01",
                "balance": "0x00",
                "code": "0x3373fffffffffffffffffffffffffffffffffffffffe14604d57602036146024575f5ffd5b5f35801560495762001fff810690815414603c575f5ffd5b62001fff01545f5260205ff35b5f5ffd5b62001fff42064281555f359062001fff015500",
                "storage": {
                    "0x03e8": "0x03e8"
                }
            },
            "0x2adc25665018aa1fe0e6bc666dac8fc2697ff9ba": {
                "nonce": "0x00",
                "balance": "0x035df6",
                "code": "0x",
                "storage": {}
            },
            "0xa94f5374fce5edbc8e2a8697c15331677e6ebf0b": {
                "nonce": "0x01",
                "balance": "0x0de0b6b3a758c6cc",
                "code": "0x",
                "storage": {}
            }
        },
        "lastblockhash": "0x6aa5027611333685c831d9b3a796c17c057118591045df402045846421ad92b7",
        "engineNewPayloads": [
            {
                "params": [
                    {
                        "parentHash": "0x15387defb6c8abe437e27866475eea7486a896d47246cd9fae64c3b44196dbd3",
                        "feeRecipient": "0x2adc25665018aa1fe0e6bc666dac8fc2697ff9ba",
                        "stateRoot": "0xc4d979081bb796773f5ac4154900b55e329767b92b62b0f12f2cae6688a1d5a0",
                        "receiptsRoot": "0xf986f1d85c198997224851d9f3969b1d7eb478e72e948601b36358ebb691c5ee",
                        "logsBloom": "0x00000000000000000000000000000000000000000000000000000000000000000000000000000000000000000000000000000000000000000000000000000000000000000000000000000000000000000000000000000000000000000000000000000000000000000000000000000000000000000000000000000000000000000000000000000000000000000000000000000000000000000000000000000000000000000000000000000000000000000000000000000000000000000000000000000000000000000000000000000000000000000000000000000000000000000000000000000000000000000000000000000000000000000000000000000000",
                        "blockNumber": "0x1",
                        "gasLimit": "0x16345785d8a0000",
                        "gasUsed": "0x11f52",
                        "timestamp": "0x3e8",
                        "extraData": "0x00",
                        "prevRandao": "0x0000000000000000000000000000000000000000000000000000000000000000",
                        "baseFeePerGas": "0x7",
                        "blobGasUsed": "0x0",
                        "excessBlobGas": "0x0",
                        "blockHash": "0x6aa5027611333685c831d9b3a796c17c057118591045df402045846421ad92b7",
                        "transactions": [
                            "0xf860800a831e8480940000000000000000000000000000000000001300808025a0ff007e50ab2c3716e3bff62281b2ec031dd155c0f735510fe3fcfc7ee75d6224a06e9f9cc74bb9dc1431882fc17f668cc4642d23b672baff108e5d06b46533e2d3"
                        ],
                        "withdrawals": []
                    },
                    [],
                    "0x0000000000000000000000000000000000000000000000000000000000000000"
                ],
                "newPayloadVersion": "3",
                "forkchoiceUpdatedVersion": "3"
            }
        ],
        "_info": {
            "hash": "0xef4e41d13aa30eda6d0d2bfc5bfe66bb5d44f592e4eb02ecb53762a223a0d935",
            "comment": "`execution-spec-tests` generated test",
            "filling-transition-tool": "evmone-t8n 0.12.0+commit.3f7a16e3",
            "description": "Test function documentation:\nTests 4 variations of EXT*CALL gas, both warm and cold",
            "url": "https://github.com/ethereum/execution-spec-tests/blob/eip7692@v1.0.9/tests/prague/eip7692_eof_v1/eip7069_extcall/test_gas.py#L113",
            "reference-spec": "https://github.com/ethereum/EIPs/blob/master/EIPS/eip-7069.md",
            "reference-spec-version": "1795943aeacc86131d5ab6bb3d65824b3b1d4cad"
        }
    }
}