{
    "tests/prague/eip2537_bls_12_381_precompiles/test_bls12_g1add.py::test_valid[fork_Prague-state_test-bls_g1add_g1+p1-]": {
        "env": {
            "currentCoinbase": "0x2adc25665018aa1fe0e6bc666dac8fc2697ff9ba",
            "currentGasLimit": "0x016345785d8a0000",
            "currentNumber": "0x01",
            "currentTimestamp": "0x03e8",
            "currentRandom": "0x0000000000000000000000000000000000000000000000000000000000000000",
            "currentDifficulty": "0x00",
            "currentBaseFee": "0x07",
            "currentExcessBlobGas": "0x00"
        },
        "pre": {
            "0x0000000000000000000000000000000000001000": {
                "nonce": "0x01",
                "balance": "0x00",
                "code": "0x366000600037600060003660006000600b6101f4f16000553d6001553d600060003e3d600020600255",
                "storage": {}
            },
            "0xa94f5374fce5edbc8e2a8697c15331677e6ebf0b": {
                "nonce": "0x00",
                "balance": "0x038d7ea4c68000",
                "code": "0x",
                "storage": {}
            }
        },
        "transaction": {
            "nonce": "0x00",
            "gasPrice": "0x0a",
            "gasLimit": [
                "0x989874"
            ],
            "to": "0x0000000000000000000000000000000000001000",
            "value": [
                "0x00"
            ],
            "data": [
                "0x0000000000000000000000000000000017f1d3a73197d7942695638c4fa9ac0fc3688c4f9774b905a14e3a3f171bac586c55e83ff97a1aeffb3af00adb22c6bb0000000000000000000000000000000008b3f481e3aaa0f1a09e30ed741d8ae4fcf5e095d5d00af600db18cb2c04b3edd03cc744a2888ae40caa232946c5e7e100000000000000000000000000000000112b98340eee2777cc3c14163dea3ec97977ac3dc5c70da32e6e87578f44912e902ccef9efe28d4a78b8999dfbca942600000000000000000000000000000000186b28d92356c4dfec4b5201ad099dbdede3781f8998ddf929b4cd7756192185ca7b8f4ef7088f813270ac3d48868a21"
            ],
            "sender": "0xa94f5374fce5edbc8e2a8697c15331677e6ebf0b",
            "secretKey": "0x45a915e4d060149eb4365960e6a7a45f334393093061116b197e3240065ff2d8"
        },
        "post": {
            "Prague": [
                {
                    "hash": "0xd2b4d60d13d80063e25d642ebeb68dfdd18749c78f91fdf6075ec7b61f145bd5",
                    "logs": "0x1dcc4de8dec75d7aab85b567b6ccd41ad312451b948a7413f0a142fd40d49347",
                    "txbytes": "0xf90162800a8398987494000000000000000000000000000000000000100080b901000000000000000000000000000000000017f1d3a73197d7942695638c4fa9ac0fc3688c4f9774b905a14e3a3f171bac586c55e83ff97a1aeffb3af00adb22c6bb0000000000000000000000000000000008b3f481e3aaa0f1a09e30ed741d8ae4fcf5e095d5d00af600db18cb2c04b3edd03cc744a2888ae40caa232946c5e7e100000000000000000000000000000000112b98340eee2777cc3c14163dea3ec97977ac3dc5c70da32e6e87578f44912e902ccef9efe28d4a78b8999dfbca942600000000000000000000000000000000186b28d92356c4dfec4b5201ad099dbdede3781f8998ddf929b4cd7756192185ca7b8f4ef7088f813270ac3d48868a2126a07d733f84a28debd91508f31250852ab8f5db8af121ee966a8beaec3b99f98e48a009fe4a8b104e94643eb2c5a5075c9e8da41af4725c501385f1ecae68a3b54527",
                    "indexes": {
                        "data": 0,
                        "gas": 0,
                        "value": 0
                    }
                }
            ]
        },
        "_info": {
            "hash": "0x25d8b4a5aa148678f22cff70043d4cb8869ad25068ec82faa8820735894695e9",
            "comment": "`execution-spec-tests` generated test",
            "filling-transition-tool": "ethereumjs t8n v1",
            "description": "Test function documentation:\n\n    Test the BLS12_G1ADD precompile.",
            "url": "https://github.com/ethereum/execution-spec-tests/blob/pectra-devnet-3@v1.1.0/tests/prague/eip2537_bls_12_381_precompiles/test_bls12_g1add.py#L24",
            "reference-spec": "https://github.com/ethereum/EIPs/blob/master/EIPS/eip-2537.md",
            "reference-spec-version": "cd0f016ad0c4c68b8b1f5c502ef61ab9353b6e5e"
        }
    },
    "tests/prague/eip2537_bls_12_381_precompiles/test_bls12_g1add.py::test_valid[fork_Prague-state_test-bls_g1add_p1+g1-]": {
        "env": {
            "currentCoinbase": "0x2adc25665018aa1fe0e6bc666dac8fc2697ff9ba",
            "currentGasLimit": "0x016345785d8a0000",
            "currentNumber": "0x01",
            "currentTimestamp": "0x03e8",
            "currentRandom": "0x0000000000000000000000000000000000000000000000000000000000000000",
            "currentDifficulty": "0x00",
            "currentBaseFee": "0x07",
            "currentExcessBlobGas": "0x00"
        },
        "pre": {
            "0x0000000000000000000000000000000000001000": {
                "nonce": "0x01",
                "balance": "0x00",
                "code": "0x366000600037600060003660006000600b6101f4f16000553d6001553d600060003e3d600020600255",
                "storage": {}
            },
            "0xa94f5374fce5edbc8e2a8697c15331677e6ebf0b": {
                "nonce": "0x00",
                "balance": "0x038d7ea4c68000",
                "code": "0x",
                "storage": {}
            }
        },
        "transaction": {
            "nonce": "0x00",
            "gasPrice": "0x0a",
            "gasLimit": [
                "0x989874"
            ],
            "to": "0x0000000000000000000000000000000000001000",
            "value": [
                "0x00"
            ],
            "data": [
                "0x00000000000000000000000000000000112b98340eee2777cc3c14163dea3ec97977ac3dc5c70da32e6e87578f44912e902ccef9efe28d4a78b8999dfbca942600000000000000000000000000000000186b28d92356c4dfec4b5201ad099dbdede3781f8998ddf929b4cd7756192185ca7b8f4ef7088f813270ac3d48868a210000000000000000000000000000000017f1d3a73197d7942695638c4fa9ac0fc3688c4f9774b905a14e3a3f171bac586c55e83ff97a1aeffb3af00adb22c6bb0000000000000000000000000000000008b3f481e3aaa0f1a09e30ed741d8ae4fcf5e095d5d00af600db18cb2c04b3edd03cc744a2888ae40caa232946c5e7e1"
            ],
            "sender": "0xa94f5374fce5edbc8e2a8697c15331677e6ebf0b",
            "secretKey": "0x45a915e4d060149eb4365960e6a7a45f334393093061116b197e3240065ff2d8"
        },
        "post": {
            "Prague": [
                {
                    "hash": "0xd2b4d60d13d80063e25d642ebeb68dfdd18749c78f91fdf6075ec7b61f145bd5",
                    "logs": "0x1dcc4de8dec75d7aab85b567b6ccd41ad312451b948a7413f0a142fd40d49347",
                    "txbytes": "0xf90162800a8398987494000000000000000000000000000000000000100080b9010000000000000000000000000000000000112b98340eee2777cc3c14163dea3ec97977ac3dc5c70da32e6e87578f44912e902ccef9efe28d4a78b8999dfbca942600000000000000000000000000000000186b28d92356c4dfec4b5201ad099dbdede3781f8998ddf929b4cd7756192185ca7b8f4ef7088f813270ac3d48868a210000000000000000000000000000000017f1d3a73197d7942695638c4fa9ac0fc3688c4f9774b905a14e3a3f171bac586c55e83ff97a1aeffb3af00adb22c6bb0000000000000000000000000000000008b3f481e3aaa0f1a09e30ed741d8ae4fcf5e095d5d00af600db18cb2c04b3edd03cc744a2888ae40caa232946c5e7e126a022515412d128235a94b701df79612be5df4c7a09ae8c0bd92eb708f2722635a8a05ffd3acb2bda2ef3607355f1a0d6c114f5aa66319db5701f45b9787a0790d863",
                    "indexes": {
                        "data": 0,
                        "gas": 0,
                        "value": 0
                    }
                }
            ]
        },
        "_info": {
            "hash": "0xb55c93925de390a9059d31e0e61e81231f151e1c344e708f2c271fe82b3b2206",
            "comment": "`execution-spec-tests` generated test",
            "filling-transition-tool": "ethereumjs t8n v1",
            "description": "Test function documentation:\n\n    Test the BLS12_G1ADD precompile.",
            "url": "https://github.com/ethereum/execution-spec-tests/blob/pectra-devnet-3@v1.1.0/tests/prague/eip2537_bls_12_381_precompiles/test_bls12_g1add.py#L24",
            "reference-spec": "https://github.com/ethereum/EIPs/blob/master/EIPS/eip-2537.md",
            "reference-spec-version": "cd0f016ad0c4c68b8b1f5c502ef61ab9353b6e5e"
        }
    },
    "tests/prague/eip2537_bls_12_381_precompiles/test_bls12_g1add.py::test_valid[fork_Prague-state_test-bls_g1add_g1_wrong_order+g1-]": {
        "env": {
            "currentCoinbase": "0x2adc25665018aa1fe0e6bc666dac8fc2697ff9ba",
            "currentGasLimit": "0x016345785d8a0000",
            "currentNumber": "0x01",
            "currentTimestamp": "0x03e8",
            "currentRandom": "0x0000000000000000000000000000000000000000000000000000000000000000",
            "currentDifficulty": "0x00",
            "currentBaseFee": "0x07",
            "currentExcessBlobGas": "0x00"
        },
        "pre": {
            "0x0000000000000000000000000000000000001000": {
                "nonce": "0x01",
                "balance": "0x00",
                "code": "0x366000600037600060003660006000600b6101f4f16000553d6001553d600060003e3d600020600255",
                "storage": {}
            },
            "0xa94f5374fce5edbc8e2a8697c15331677e6ebf0b": {
                "nonce": "0x00",
                "balance": "0x038d7ea4c68000",
                "code": "0x",
                "storage": {}
            }
        },
        "transaction": {
            "nonce": "0x00",
            "gasPrice": "0x0a",
            "gasLimit": [
                "0x989874"
            ],
            "to": "0x0000000000000000000000000000000000001000",
            "value": [
                "0x00"
            ],
            "data": [
                "0x000000000000000000000000000000000123456789abcdef0123456789abcdef0123456789abcdef0123456789abcdef0123456789abcdef0123456789abcdef00000000000000000000000000000000193fb7cedb32b2c3adc06ec11a96bc0d661869316f5e4a577a9f7c179593987beb4fb2ee424dbb2f5dd891e228b46c4a0000000000000000000000000000000017f1d3a73197d7942695638c4fa9ac0fc3688c4f9774b905a14e3a3f171bac586c55e83ff97a1aeffb3af00adb22c6bb0000000000000000000000000000000008b3f481e3aaa0f1a09e30ed741d8ae4fcf5e095d5d00af600db18cb2c04b3edd03cc744a2888ae40caa232946c5e7e1"
            ],
            "sender": "0xa94f5374fce5edbc8e2a8697c15331677e6ebf0b",
            "secretKey": "0x45a915e4d060149eb4365960e6a7a45f334393093061116b197e3240065ff2d8"
        },
        "post": {
            "Prague": [
                {
                    "hash": "0x5c6c8e2626349dc8563c2e2ad52b2f7ee692491eed17ba3582aba84b7aac08fe",
                    "logs": "0x1dcc4de8dec75d7aab85b567b6ccd41ad312451b948a7413f0a142fd40d49347",
                    "txbytes": "0xf90162800a8398987494000000000000000000000000000000000000100080b90100000000000000000000000000000000000123456789abcdef0123456789abcdef0123456789abcdef0123456789abcdef0123456789abcdef0123456789abcdef00000000000000000000000000000000193fb7cedb32b2c3adc06ec11a96bc0d661869316f5e4a577a9f7c179593987beb4fb2ee424dbb2f5dd891e228b46c4a0000000000000000000000000000000017f1d3a73197d7942695638c4fa9ac0fc3688c4f9774b905a14e3a3f171bac586c55e83ff97a1aeffb3af00adb22c6bb0000000000000000000000000000000008b3f481e3aaa0f1a09e30ed741d8ae4fcf5e095d5d00af600db18cb2c04b3edd03cc744a2888ae40caa232946c5e7e126a0c6155b0abfc2b489783de5adb2ca4ac233a2031c3698292d16db78f2812bab6ca07c2ed68f97922ad3148ac2d3bf55acba5fea46c6a0456a7f1a1cff7b7ef52ddd",
                    "indexes": {
                        "data": 0,
                        "gas": 0,
                        "value": 0
                    }
                }
            ]
        },
        "_info": {
            "hash": "0xbee7fe8cfa7762a24ecc52bc0af318063083c677653e86f20bf3c08a8ef012b9",
            "comment": "`execution-spec-tests` generated test",
            "filling-transition-tool": "ethereumjs t8n v1",
            "description": "Test function documentation:\n\n    Test the BLS12_G1ADD precompile.",
            "url": "https://github.com/ethereum/execution-spec-tests/blob/pectra-devnet-3@v1.1.0/tests/prague/eip2537_bls_12_381_precompiles/test_bls12_g1add.py#L24",
            "reference-spec": "https://github.com/ethereum/EIPs/blob/master/EIPS/eip-2537.md",
            "reference-spec-version": "cd0f016ad0c4c68b8b1f5c502ef61ab9353b6e5e"
        }
    },
    "tests/prague/eip2537_bls_12_381_precompiles/test_bls12_g1add.py::test_valid[fork_Prague-state_test-bls_g1add_(g1+0=g1)-]": {
        "env": {
            "currentCoinbase": "0x2adc25665018aa1fe0e6bc666dac8fc2697ff9ba",
            "currentGasLimit": "0x016345785d8a0000",
            "currentNumber": "0x01",
            "currentTimestamp": "0x03e8",
            "currentRandom": "0x0000000000000000000000000000000000000000000000000000000000000000",
            "currentDifficulty": "0x00",
            "currentBaseFee": "0x07",
            "currentExcessBlobGas": "0x00"
        },
        "pre": {
            "0x0000000000000000000000000000000000001000": {
                "nonce": "0x01",
                "balance": "0x00",
                "code": "0x366000600037600060003660006000600b6101f4f16000553d6001553d600060003e3d600020600255",
                "storage": {}
            },
            "0xa94f5374fce5edbc8e2a8697c15331677e6ebf0b": {
                "nonce": "0x00",
                "balance": "0x038d7ea4c68000",
                "code": "0x",
                "storage": {}
            }
        },
        "transaction": {
            "nonce": "0x00",
            "gasPrice": "0x0a",
            "gasLimit": [
                "0x989874"
            ],
            "to": "0x0000000000000000000000000000000000001000",
            "value": [
                "0x00"
            ],
            "data": [
                "0x0000000000000000000000000000000017f1d3a73197d7942695638c4fa9ac0fc3688c4f9774b905a14e3a3f171bac586c55e83ff97a1aeffb3af00adb22c6bb0000000000000000000000000000000008b3f481e3aaa0f1a09e30ed741d8ae4fcf5e095d5d00af600db18cb2c04b3edd03cc744a2888ae40caa232946c5e7e10000000000000000000000000000000000000000000000000000000000000000000000000000000000000000000000000000000000000000000000000000000000000000000000000000000000000000000000000000000000000000000000000000000000000000000000000000000000000000000000000000000000000000"
            ],
            "sender": "0xa94f5374fce5edbc8e2a8697c15331677e6ebf0b",
            "secretKey": "0x45a915e4d060149eb4365960e6a7a45f334393093061116b197e3240065ff2d8"
        },
        "post": {
            "Prague": [
                {
                    "hash": "0x5b19e1ba867cf1a25df3398b4e5e30ee5a2f4e173632da4090e73a142d10a0c3",
                    "logs": "0x1dcc4de8dec75d7aab85b567b6ccd41ad312451b948a7413f0a142fd40d49347",
                    "txbytes": "0xf90162800a8398987494000000000000000000000000000000000000100080b901000000000000000000000000000000000017f1d3a73197d7942695638c4fa9ac0fc3688c4f9774b905a14e3a3f171bac586c55e83ff97a1aeffb3af00adb22c6bb0000000000000000000000000000000008b3f481e3aaa0f1a09e30ed741d8ae4fcf5e095d5d00af600db18cb2c04b3edd03cc744a2888ae40caa232946c5e7e1000000000000000000000000000000000000000000000000000000000000000000000000000000000000000000000000000000000000000000000000000000000000000000000000000000000000000000000000000000000000000000000000000000000000000000000000000000000000000000000000000000000000000025a050df38d7aea6d02a706daa84f4bf6e0b66776a549e6624b9769857bda284d840a032352ceb085db937ae7ac6af41ef878352b6af73092d16583babcbe5b710f1ea",
                    "indexes": {
                        "data": 0,
                        "gas": 0,
                        "value": 0
                    }
                }
            ]
        },
        "_info": {
            "hash": "0x00433517efd0f2676000ef9bb72ba69b19a18a07acb01761e9365d653262ccf7",
            "comment": "`execution-spec-tests` generated test",
            "filling-transition-tool": "ethereumjs t8n v1",
            "description": "Test function documentation:\n\n    Test the BLS12_G1ADD precompile.",
            "url": "https://github.com/ethereum/execution-spec-tests/blob/pectra-devnet-3@v1.1.0/tests/prague/eip2537_bls_12_381_precompiles/test_bls12_g1add.py#L24",
            "reference-spec": "https://github.com/ethereum/EIPs/blob/master/EIPS/eip-2537.md",
            "reference-spec-version": "cd0f016ad0c4c68b8b1f5c502ef61ab9353b6e5e"
        }
    },
    "tests/prague/eip2537_bls_12_381_precompiles/test_bls12_g1add.py::test_valid[fork_Prague-state_test-bls_g1add_(p1+0=p1)-]": {
        "env": {
            "currentCoinbase": "0x2adc25665018aa1fe0e6bc666dac8fc2697ff9ba",
            "currentGasLimit": "0x016345785d8a0000",
            "currentNumber": "0x01",
            "currentTimestamp": "0x03e8",
            "currentRandom": "0x0000000000000000000000000000000000000000000000000000000000000000",
            "currentDifficulty": "0x00",
            "currentBaseFee": "0x07",
            "currentExcessBlobGas": "0x00"
        },
        "pre": {
            "0x0000000000000000000000000000000000001000": {
                "nonce": "0x01",
                "balance": "0x00",
                "code": "0x366000600037600060003660006000600b6101f4f16000553d6001553d600060003e3d600020600255",
                "storage": {}
            },
            "0xa94f5374fce5edbc8e2a8697c15331677e6ebf0b": {
                "nonce": "0x00",
                "balance": "0x038d7ea4c68000",
                "code": "0x",
                "storage": {}
            }
        },
        "transaction": {
            "nonce": "0x00",
            "gasPrice": "0x0a",
            "gasLimit": [
                "0x989874"
            ],
            "to": "0x0000000000000000000000000000000000001000",
            "value": [
                "0x00"
            ],
            "data": [
                "0x00000000000000000000000000000000112b98340eee2777cc3c14163dea3ec97977ac3dc5c70da32e6e87578f44912e902ccef9efe28d4a78b8999dfbca942600000000000000000000000000000000186b28d92356c4dfec4b5201ad099dbdede3781f8998ddf929b4cd7756192185ca7b8f4ef7088f813270ac3d48868a210000000000000000000000000000000000000000000000000000000000000000000000000000000000000000000000000000000000000000000000000000000000000000000000000000000000000000000000000000000000000000000000000000000000000000000000000000000000000000000000000000000000000000"
            ],
            "sender": "0xa94f5374fce5edbc8e2a8697c15331677e6ebf0b",
            "secretKey": "0x45a915e4d060149eb4365960e6a7a45f334393093061116b197e3240065ff2d8"
        },
        "post": {
            "Prague": [
                {
                    "hash": "0x3a7abbfa7bd1260f6b97affac2925cdf27ae0e652e8b7f2a4ff65be5783ab8d6",
                    "logs": "0x1dcc4de8dec75d7aab85b567b6ccd41ad312451b948a7413f0a142fd40d49347",
                    "txbytes": "0xf90162800a8398987494000000000000000000000000000000000000100080b9010000000000000000000000000000000000112b98340eee2777cc3c14163dea3ec97977ac3dc5c70da32e6e87578f44912e902ccef9efe28d4a78b8999dfbca942600000000000000000000000000000000186b28d92356c4dfec4b5201ad099dbdede3781f8998ddf929b4cd7756192185ca7b8f4ef7088f813270ac3d48868a21000000000000000000000000000000000000000000000000000000000000000000000000000000000000000000000000000000000000000000000000000000000000000000000000000000000000000000000000000000000000000000000000000000000000000000000000000000000000000000000000000000000000000026a02191133ecc5c9de53a722a3220c1fb7ff18728f4dbc5f1d2166f9cf3ae929411a0329e494c06af36bb9dadc8a56e92454c8480fa1fcc0d4f5a5667efe451cfc3e7",
                    "indexes": {
                        "data": 0,
                        "gas": 0,
                        "value": 0
                    }
                }
            ]
        },
        "_info": {
            "hash": "0xcb7de578362d3a7e62ee2b72e2e0a3cd3241e2358d92b16caba8db1838a92c50",
            "comment": "`execution-spec-tests` generated test",
            "filling-transition-tool": "ethereumjs t8n v1",
            "description": "Test function documentation:\n\n    Test the BLS12_G1ADD precompile.",
            "url": "https://github.com/ethereum/execution-spec-tests/blob/pectra-devnet-3@v1.1.0/tests/prague/eip2537_bls_12_381_precompiles/test_bls12_g1add.py#L24",
            "reference-spec": "https://github.com/ethereum/EIPs/blob/master/EIPS/eip-2537.md",
            "reference-spec-version": "cd0f016ad0c4c68b8b1f5c502ef61ab9353b6e5e"
        }
    },
    "tests/prague/eip2537_bls_12_381_precompiles/test_bls12_g1add.py::test_valid[fork_Prague-state_test-bls_g1add_(g1-g1=0)-]": {
        "env": {
            "currentCoinbase": "0x2adc25665018aa1fe0e6bc666dac8fc2697ff9ba",
            "currentGasLimit": "0x016345785d8a0000",
            "currentNumber": "0x01",
            "currentTimestamp": "0x03e8",
            "currentRandom": "0x0000000000000000000000000000000000000000000000000000000000000000",
            "currentDifficulty": "0x00",
            "currentBaseFee": "0x07",
            "currentExcessBlobGas": "0x00"
        },
        "pre": {
            "0x0000000000000000000000000000000000001000": {
                "nonce": "0x01",
                "balance": "0x00",
                "code": "0x366000600037600060003660006000600b6101f4f16000553d6001553d600060003e3d600020600255",
                "storage": {}
            },
            "0xa94f5374fce5edbc8e2a8697c15331677e6ebf0b": {
                "nonce": "0x00",
                "balance": "0x038d7ea4c68000",
                "code": "0x",
                "storage": {}
            }
        },
        "transaction": {
            "nonce": "0x00",
            "gasPrice": "0x0a",
            "gasLimit": [
                "0x989874"
            ],
            "to": "0x0000000000000000000000000000000000001000",
            "value": [
                "0x00"
            ],
            "data": [
                "0x0000000000000000000000000000000017f1d3a73197d7942695638c4fa9ac0fc3688c4f9774b905a14e3a3f171bac586c55e83ff97a1aeffb3af00adb22c6bb0000000000000000000000000000000008b3f481e3aaa0f1a09e30ed741d8ae4fcf5e095d5d00af600db18cb2c04b3edd03cc744a2888ae40caa232946c5e7e10000000000000000000000000000000017f1d3a73197d7942695638c4fa9ac0fc3688c4f9774b905a14e3a3f171bac586c55e83ff97a1aeffb3af00adb22c6bb00000000000000000000000000000000114d1d6855d545a8aa7d76c8cf2e21f267816aef1db507c96655b9d5caac42364e6f38ba0ecb751bad54dcd6b939c2ca"
            ],
            "sender": "0xa94f5374fce5edbc8e2a8697c15331677e6ebf0b",
            "secretKey": "0x45a915e4d060149eb4365960e6a7a45f334393093061116b197e3240065ff2d8"
        },
        "post": {
            "Prague": [
                {
                    "hash": "0x08f2d23dc0f6746ef9bdeae48b39c48404066fdd79a6805d921a0a36a085a54a",
                    "logs": "0x1dcc4de8dec75d7aab85b567b6ccd41ad312451b948a7413f0a142fd40d49347",
                    "txbytes": "0xf90162800a8398987494000000000000000000000000000000000000100080b901000000000000000000000000000000000017f1d3a73197d7942695638c4fa9ac0fc3688c4f9774b905a14e3a3f171bac586c55e83ff97a1aeffb3af00adb22c6bb0000000000000000000000000000000008b3f481e3aaa0f1a09e30ed741d8ae4fcf5e095d5d00af600db18cb2c04b3edd03cc744a2888ae40caa232946c5e7e10000000000000000000000000000000017f1d3a73197d7942695638c4fa9ac0fc3688c4f9774b905a14e3a3f171bac586c55e83ff97a1aeffb3af00adb22c6bb00000000000000000000000000000000114d1d6855d545a8aa7d76c8cf2e21f267816aef1db507c96655b9d5caac42364e6f38ba0ecb751bad54dcd6b939c2ca26a0e4c0106bcab376e9138372248a830abfd46b6d9df35e8400f98db4de81690693a04e4fdd464894e47e68cd1fd8244290a88dbc241b841e4a5c4e502ac075a2d382",
                    "indexes": {
                        "data": 0,
                        "gas": 0,
                        "value": 0
                    }
                }
            ]
        },
        "_info": {
            "hash": "0x314f49f30ac0cb19b9537cdd985b5bfda00b974e21c5c721aadc4e872d5318c0",
            "comment": "`execution-spec-tests` generated test",
            "filling-transition-tool": "ethereumjs t8n v1",
            "description": "Test function documentation:\n\n    Test the BLS12_G1ADD precompile.",
            "url": "https://github.com/ethereum/execution-spec-tests/blob/pectra-devnet-3@v1.1.0/tests/prague/eip2537_bls_12_381_precompiles/test_bls12_g1add.py#L24",
            "reference-spec": "https://github.com/ethereum/EIPs/blob/master/EIPS/eip-2537.md",
            "reference-spec-version": "cd0f016ad0c4c68b8b1f5c502ef61ab9353b6e5e"
        }
    },
    "tests/prague/eip2537_bls_12_381_precompiles/test_bls12_g1add.py::test_valid[fork_Prague-state_test-bls_g1add_(p1-p1=0)-]": {
        "env": {
            "currentCoinbase": "0x2adc25665018aa1fe0e6bc666dac8fc2697ff9ba",
            "currentGasLimit": "0x016345785d8a0000",
            "currentNumber": "0x01",
            "currentTimestamp": "0x03e8",
            "currentRandom": "0x0000000000000000000000000000000000000000000000000000000000000000",
            "currentDifficulty": "0x00",
            "currentBaseFee": "0x07",
            "currentExcessBlobGas": "0x00"
        },
        "pre": {
            "0x0000000000000000000000000000000000001000": {
                "nonce": "0x01",
                "balance": "0x00",
                "code": "0x366000600037600060003660006000600b6101f4f16000553d6001553d600060003e3d600020600255",
                "storage": {}
            },
            "0xa94f5374fce5edbc8e2a8697c15331677e6ebf0b": {
                "nonce": "0x00",
                "balance": "0x038d7ea4c68000",
                "code": "0x",
                "storage": {}
            }
        },
        "transaction": {
            "nonce": "0x00",
            "gasPrice": "0x0a",
            "gasLimit": [
                "0x989874"
            ],
            "to": "0x0000000000000000000000000000000000001000",
            "value": [
                "0x00"
            ],
            "data": [
                "0x00000000000000000000000000000000112b98340eee2777cc3c14163dea3ec97977ac3dc5c70da32e6e87578f44912e902ccef9efe28d4a78b8999dfbca942600000000000000000000000000000000186b28d92356c4dfec4b5201ad099dbdede3781f8998ddf929b4cd7756192185ca7b8f4ef7088f813270ac3d48868a2100000000000000000000000000000000112b98340eee2777cc3c14163dea3ec97977ac3dc5c70da32e6e87578f44912e902ccef9efe28d4a78b8999dfbca9426000000000000000000000000000000000195e911162921ba5ed055b496420f197693d36569ec34c63d7c0529a097d49e543070afba4b707e878e53c2b779208a"
            ],
            "sender": "0xa94f5374fce5edbc8e2a8697c15331677e6ebf0b",
            "secretKey": "0x45a915e4d060149eb4365960e6a7a45f334393093061116b197e3240065ff2d8"
        },
        "post": {
            "Prague": [
                {
                    "hash": "0x434b9eb4776fb68bd29ac180000fa71d14370338c60e064ea18bb622dfdeb0b8",
                    "logs": "0x1dcc4de8dec75d7aab85b567b6ccd41ad312451b948a7413f0a142fd40d49347",
                    "txbytes": "0xf90162800a8398987494000000000000000000000000000000000000100080b9010000000000000000000000000000000000112b98340eee2777cc3c14163dea3ec97977ac3dc5c70da32e6e87578f44912e902ccef9efe28d4a78b8999dfbca942600000000000000000000000000000000186b28d92356c4dfec4b5201ad099dbdede3781f8998ddf929b4cd7756192185ca7b8f4ef7088f813270ac3d48868a2100000000000000000000000000000000112b98340eee2777cc3c14163dea3ec97977ac3dc5c70da32e6e87578f44912e902ccef9efe28d4a78b8999dfbca9426000000000000000000000000000000000195e911162921ba5ed055b496420f197693d36569ec34c63d7c0529a097d49e543070afba4b707e878e53c2b779208a25a01b9db4bb589771ffb6a83ed7dfd94e683b5edfb563e40b0c7ec624aef218617ca0487a42f8110b1128b96e8cfbdac23de775fe32eb28abfb4db3b4333d1029588d",
                    "indexes": {
                        "data": 0,
                        "gas": 0,
                        "value": 0
                    }
                }
            ]
        },
        "_info": {
            "hash": "0x1a147c706d9cf7e513186c6e151a2e8877678821e514d6ae0507357f05e635a1",
            "comment": "`execution-spec-tests` generated test",
            "filling-transition-tool": "ethereumjs t8n v1",
            "description": "Test function documentation:\n\n    Test the BLS12_G1ADD precompile.",
            "url": "https://github.com/ethereum/execution-spec-tests/blob/pectra-devnet-3@v1.1.0/tests/prague/eip2537_bls_12_381_precompiles/test_bls12_g1add.py#L24",
            "reference-spec": "https://github.com/ethereum/EIPs/blob/master/EIPS/eip-2537.md",
            "reference-spec-version": "cd0f016ad0c4c68b8b1f5c502ef61ab9353b6e5e"
        }
    },
    "tests/prague/eip2537_bls_12_381_precompiles/test_bls12_g1add.py::test_valid[fork_Prague-state_test-bls_g1add_(g1+g1=2*g1)-]": {
        "env": {
            "currentCoinbase": "0x2adc25665018aa1fe0e6bc666dac8fc2697ff9ba",
            "currentGasLimit": "0x016345785d8a0000",
            "currentNumber": "0x01",
            "currentTimestamp": "0x03e8",
            "currentRandom": "0x0000000000000000000000000000000000000000000000000000000000000000",
            "currentDifficulty": "0x00",
            "currentBaseFee": "0x07",
            "currentExcessBlobGas": "0x00"
        },
        "pre": {
            "0x0000000000000000000000000000000000001000": {
                "nonce": "0x01",
                "balance": "0x00",
                "code": "0x366000600037600060003660006000600b6101f4f16000553d6001553d600060003e3d600020600255",
                "storage": {}
            },
            "0xa94f5374fce5edbc8e2a8697c15331677e6ebf0b": {
                "nonce": "0x00",
                "balance": "0x038d7ea4c68000",
                "code": "0x",
                "storage": {}
            }
        },
        "transaction": {
            "nonce": "0x00",
            "gasPrice": "0x0a",
            "gasLimit": [
                "0x989874"
            ],
            "to": "0x0000000000000000000000000000000000001000",
            "value": [
                "0x00"
            ],
            "data": [
                "0x0000000000000000000000000000000017f1d3a73197d7942695638c4fa9ac0fc3688c4f9774b905a14e3a3f171bac586c55e83ff97a1aeffb3af00adb22c6bb0000000000000000000000000000000008b3f481e3aaa0f1a09e30ed741d8ae4fcf5e095d5d00af600db18cb2c04b3edd03cc744a2888ae40caa232946c5e7e10000000000000000000000000000000017f1d3a73197d7942695638c4fa9ac0fc3688c4f9774b905a14e3a3f171bac586c55e83ff97a1aeffb3af00adb22c6bb0000000000000000000000000000000008b3f481e3aaa0f1a09e30ed741d8ae4fcf5e095d5d00af600db18cb2c04b3edd03cc744a2888ae40caa232946c5e7e1"
            ],
            "sender": "0xa94f5374fce5edbc8e2a8697c15331677e6ebf0b",
            "secretKey": "0x45a915e4d060149eb4365960e6a7a45f334393093061116b197e3240065ff2d8"
        },
        "post": {
            "Prague": [
                {
                    "hash": "0x80c7c199fd75d905df7fac47cf1a3fa56a0f90b1af00f7d8dfe51b0ffd1b37b7",
                    "logs": "0x1dcc4de8dec75d7aab85b567b6ccd41ad312451b948a7413f0a142fd40d49347",
                    "txbytes": "0xf90162800a8398987494000000000000000000000000000000000000100080b901000000000000000000000000000000000017f1d3a73197d7942695638c4fa9ac0fc3688c4f9774b905a14e3a3f171bac586c55e83ff97a1aeffb3af00adb22c6bb0000000000000000000000000000000008b3f481e3aaa0f1a09e30ed741d8ae4fcf5e095d5d00af600db18cb2c04b3edd03cc744a2888ae40caa232946c5e7e10000000000000000000000000000000017f1d3a73197d7942695638c4fa9ac0fc3688c4f9774b905a14e3a3f171bac586c55e83ff97a1aeffb3af00adb22c6bb0000000000000000000000000000000008b3f481e3aaa0f1a09e30ed741d8ae4fcf5e095d5d00af600db18cb2c04b3edd03cc744a2888ae40caa232946c5e7e126a0e4e527a9fd8797970b4d98702bb473fac44cfe374d346a52d986c1cd4b778faba01d17881fa12903798e77dda0dac395de24389e8193a7e4e79f90e59504ac4b55",
                    "indexes": {
                        "data": 0,
                        "gas": 0,
                        "value": 0
                    }
                }
            ]
        },
        "_info": {
            "hash": "0x0beb7d4a0e0767a65b6235c60af6a8840a6a6545f2db93f8ce3fecb0887cab8b",
            "comment": "`execution-spec-tests` generated test",
            "filling-transition-tool": "ethereumjs t8n v1",
            "description": "Test function documentation:\n\n    Test the BLS12_G1ADD precompile.",
            "url": "https://github.com/ethereum/execution-spec-tests/blob/pectra-devnet-3@v1.1.0/tests/prague/eip2537_bls_12_381_precompiles/test_bls12_g1add.py#L24",
            "reference-spec": "https://github.com/ethereum/EIPs/blob/master/EIPS/eip-2537.md",
            "reference-spec-version": "cd0f016ad0c4c68b8b1f5c502ef61ab9353b6e5e"
        }
    },
    "tests/prague/eip2537_bls_12_381_precompiles/test_bls12_g1add.py::test_valid[fork_Prague-state_test-bls_g1add_(p1+p1=2*p1)-]": {
        "env": {
            "currentCoinbase": "0x2adc25665018aa1fe0e6bc666dac8fc2697ff9ba",
            "currentGasLimit": "0x016345785d8a0000",
            "currentNumber": "0x01",
            "currentTimestamp": "0x03e8",
            "currentRandom": "0x0000000000000000000000000000000000000000000000000000000000000000",
            "currentDifficulty": "0x00",
            "currentBaseFee": "0x07",
            "currentExcessBlobGas": "0x00"
        },
        "pre": {
            "0x0000000000000000000000000000000000001000": {
                "nonce": "0x01",
                "balance": "0x00",
                "code": "0x366000600037600060003660006000600b6101f4f16000553d6001553d600060003e3d600020600255",
                "storage": {}
            },
            "0xa94f5374fce5edbc8e2a8697c15331677e6ebf0b": {
                "nonce": "0x00",
                "balance": "0x038d7ea4c68000",
                "code": "0x",
                "storage": {}
            }
        },
        "transaction": {
            "nonce": "0x00",
            "gasPrice": "0x0a",
            "gasLimit": [
                "0x989874"
            ],
            "to": "0x0000000000000000000000000000000000001000",
            "value": [
                "0x00"
            ],
            "data": [
                "0x00000000000000000000000000000000112b98340eee2777cc3c14163dea3ec97977ac3dc5c70da32e6e87578f44912e902ccef9efe28d4a78b8999dfbca942600000000000000000000000000000000186b28d92356c4dfec4b5201ad099dbdede3781f8998ddf929b4cd7756192185ca7b8f4ef7088f813270ac3d48868a2100000000000000000000000000000000112b98340eee2777cc3c14163dea3ec97977ac3dc5c70da32e6e87578f44912e902ccef9efe28d4a78b8999dfbca942600000000000000000000000000000000186b28d92356c4dfec4b5201ad099dbdede3781f8998ddf929b4cd7756192185ca7b8f4ef7088f813270ac3d48868a21"
            ],
            "sender": "0xa94f5374fce5edbc8e2a8697c15331677e6ebf0b",
            "secretKey": "0x45a915e4d060149eb4365960e6a7a45f334393093061116b197e3240065ff2d8"
        },
        "post": {
            "Prague": [
                {
                    "hash": "0x177eb2f5aad0874fbaa746735ffbba17992393faae17cfaf99f13c1484ded4ea",
                    "logs": "0x1dcc4de8dec75d7aab85b567b6ccd41ad312451b948a7413f0a142fd40d49347",
                    "txbytes": "0xf90162800a8398987494000000000000000000000000000000000000100080b9010000000000000000000000000000000000112b98340eee2777cc3c14163dea3ec97977ac3dc5c70da32e6e87578f44912e902ccef9efe28d4a78b8999dfbca942600000000000000000000000000000000186b28d92356c4dfec4b5201ad099dbdede3781f8998ddf929b4cd7756192185ca7b8f4ef7088f813270ac3d48868a2100000000000000000000000000000000112b98340eee2777cc3c14163dea3ec97977ac3dc5c70da32e6e87578f44912e902ccef9efe28d4a78b8999dfbca942600000000000000000000000000000000186b28d92356c4dfec4b5201ad099dbdede3781f8998ddf929b4cd7756192185ca7b8f4ef7088f813270ac3d48868a2125a0420a06fa5b6e8b6953de7118f8e85924ed9f464c289f2da40e876fcc1acbd897a005a552a2c21a010f998557924d3418674ecdc1fc3e24f8dced38fe6cd52ae56b",
                    "indexes": {
                        "data": 0,
                        "gas": 0,
                        "value": 0
                    }
                }
            ]
        },
        "_info": {
            "hash": "0xd9b0ddbae761f5eac761938e0a4d7aa6585026a26cdc157ce9908e7836bfad15",
            "comment": "`execution-spec-tests` generated test",
            "filling-transition-tool": "ethereumjs t8n v1",
            "description": "Test function documentation:\n\n    Test the BLS12_G1ADD precompile.",
            "url": "https://github.com/ethereum/execution-spec-tests/blob/pectra-devnet-3@v1.1.0/tests/prague/eip2537_bls_12_381_precompiles/test_bls12_g1add.py#L24",
            "reference-spec": "https://github.com/ethereum/EIPs/blob/master/EIPS/eip-2537.md",
            "reference-spec-version": "cd0f016ad0c4c68b8b1f5c502ef61ab9353b6e5e"
        }
    },
    "tests/prague/eip2537_bls_12_381_precompiles/test_bls12_g1add.py::test_valid[fork_Prague-state_test-inf_plus_inf-]": {
        "env": {
            "currentCoinbase": "0x2adc25665018aa1fe0e6bc666dac8fc2697ff9ba",
            "currentGasLimit": "0x016345785d8a0000",
            "currentNumber": "0x01",
            "currentTimestamp": "0x03e8",
            "currentRandom": "0x0000000000000000000000000000000000000000000000000000000000000000",
            "currentDifficulty": "0x00",
            "currentBaseFee": "0x07",
            "currentExcessBlobGas": "0x00"
        },
        "pre": {
            "0x0000000000000000000000000000000000001000": {
                "nonce": "0x01",
                "balance": "0x00",
                "code": "0x366000600037600060003660006000600b6101f4f16000553d6001553d600060003e3d600020600255",
                "storage": {}
            },
            "0xa94f5374fce5edbc8e2a8697c15331677e6ebf0b": {
                "nonce": "0x00",
                "balance": "0x038d7ea4c68000",
                "code": "0x",
                "storage": {}
            }
        },
        "transaction": {
            "nonce": "0x00",
            "gasPrice": "0x0a",
            "gasLimit": [
                "0x989874"
            ],
            "to": "0x0000000000000000000000000000000000001000",
            "value": [
                "0x00"
            ],
            "data": [
                "0x00000000000000000000000000000000000000000000000000000000000000000000000000000000000000000000000000000000000000000000000000000000000000000000000000000000000000000000000000000000000000000000000000000000000000000000000000000000000000000000000000000000000000000000000000000000000000000000000000000000000000000000000000000000000000000000000000000000000000000000000000000000000000000000000000000000000000000000000000000000000000000000000000000000000000000000000000000000000000000000000000000000000000000000000000000000"
            ],
            "sender": "0xa94f5374fce5edbc8e2a8697c15331677e6ebf0b",
            "secretKey": "0x45a915e4d060149eb4365960e6a7a45f334393093061116b197e3240065ff2d8"
        },
        "post": {
            "Prague": [
                {
                    "hash": "0x56ce9add49b8f4685a2e3eb3afa8bd27870d1d1a3c4fc6b8b7c9c1f6a6868497",
                    "logs": "0x1dcc4de8dec75d7aab85b567b6ccd41ad312451b948a7413f0a142fd40d49347",
                    "txbytes": "0xf90162800a8398987494000000000000000000000000000000000000100080b901000000000000000000000000000000000000000000000000000000000000000000000000000000000000000000000000000000000000000000000000000000000000000000000000000000000000000000000000000000000000000000000000000000000000000000000000000000000000000000000000000000000000000000000000000000000000000000000000000000000000000000000000000000000000000000000000000000000000000000000000000000000000000000000000000000000000000000000000000000000000000000000000000000000000000000000000000000000000000000000000000000000000000000000000000000000026a05945f4ac2b4d0e3040eb5b7473aeeb6cdceec63b6695dbf3b3b018f9f88bc2a1a012e77e347c6e3d67beb5a1e9dbbf141813fdc78ffa421a46732c06931115c826",
                    "indexes": {
                        "data": 0,
                        "gas": 0,
                        "value": 0
                    }
                }
            ]
        },
        "_info": {
            "hash": "0xcda196588e55fb7baf4c4ed1b6cab156d375210fabce9a4229e96e9cd8993c99",
            "comment": "`execution-spec-tests` generated test",
            "filling-transition-tool": "ethereumjs t8n v1",
            "description": "Test function documentation:\n\n    Test the BLS12_G1ADD precompile.",
            "url": "https://github.com/ethereum/execution-spec-tests/blob/pectra-devnet-3@v1.1.0/tests/prague/eip2537_bls_12_381_precompiles/test_bls12_g1add.py#L24",
            "reference-spec": "https://github.com/ethereum/EIPs/blob/master/EIPS/eip-2537.md",
            "reference-spec-version": "cd0f016ad0c4c68b8b1f5c502ef61ab9353b6e5e"
        }
    },
    "tests/prague/eip2537_bls_12_381_precompiles/test_bls12_g1add.py::test_valid[fork_Prague-state_test-not_in_subgroup_1-]": {
        "env": {
            "currentCoinbase": "0x2adc25665018aa1fe0e6bc666dac8fc2697ff9ba",
            "currentGasLimit": "0x016345785d8a0000",
            "currentNumber": "0x01",
            "currentTimestamp": "0x03e8",
            "currentRandom": "0x0000000000000000000000000000000000000000000000000000000000000000",
            "currentDifficulty": "0x00",
            "currentBaseFee": "0x07",
            "currentExcessBlobGas": "0x00"
        },
        "pre": {
            "0x0000000000000000000000000000000000001000": {
                "nonce": "0x01",
                "balance": "0x00",
                "code": "0x366000600037600060003660006000600b6101f4f16000553d6001553d600060003e3d600020600255",
                "storage": {}
            },
            "0xa94f5374fce5edbc8e2a8697c15331677e6ebf0b": {
                "nonce": "0x00",
                "balance": "0x038d7ea4c68000",
                "code": "0x",
                "storage": {}
            }
        },
        "transaction": {
            "nonce": "0x00",
            "gasPrice": "0x0a",
            "gasLimit": [
                "0x989874"
            ],
            "to": "0x0000000000000000000000000000000000001000",
            "value": [
                "0x00"
            ],
            "data": [
                "0x00000000000000000000000000000000000000000000000000000000000000000000000000000000000000000000000000000000000000000000000000000000000000000000000000000000000000000000000000000000000000000000000000000000000000000000000000000000000000000000000000000000000000020000000000000000000000000000000000000000000000000000000000000000000000000000000000000000000000000000000000000000000000000000000000000000000000000000000000000000000000000000000000000000000000000000000000000000000000000000000000000000000000000000000000000002"
            ],
            "sender": "0xa94f5374fce5edbc8e2a8697c15331677e6ebf0b",
            "secretKey": "0x45a915e4d060149eb4365960e6a7a45f334393093061116b197e3240065ff2d8"
        },
        "post": {
            "Prague": [
                {
                    "hash": "0x68a021fe208320de517b9d10abefea9d115de21f245ddf9cc2454b3a509895c8",
                    "logs": "0x1dcc4de8dec75d7aab85b567b6ccd41ad312451b948a7413f0a142fd40d49347",
                    "txbytes": "0xf90162800a8398987494000000000000000000000000000000000000100080b901000000000000000000000000000000000000000000000000000000000000000000000000000000000000000000000000000000000000000000000000000000000000000000000000000000000000000000000000000000000000000000000000000000000000000000000000000000000000000000000000000000000000000002000000000000000000000000000000000000000000000000000000000000000000000000000000000000000000000000000000000000000000000000000000000000000000000000000000000000000000000000000000000000000000000000000000000000000000000000000000000000000000000000000000000000000225a04197958b4f2237cbc4fd7d2b56d9a19a1785d222ace07a3f129de507dee56d75a02d2195a092eaa0a707d9b2feb0735a4ac16d1238382abe7727f109126bb7a090",
                    "indexes": {
                        "data": 0,
                        "gas": 0,
                        "value": 0
                    }
                }
            ]
        },
        "_info": {
            "hash": "0x0faea4bb986477be088a9e87d3731f12cc36b0cb30ac9f84a37cca2c37b22cda",
            "comment": "`execution-spec-tests` generated test",
            "filling-transition-tool": "ethereumjs t8n v1",
            "description": "Test function documentation:\n\n    Test the BLS12_G1ADD precompile.",
            "url": "https://github.com/ethereum/execution-spec-tests/blob/pectra-devnet-3@v1.1.0/tests/prague/eip2537_bls_12_381_precompiles/test_bls12_g1add.py#L24",
            "reference-spec": "https://github.com/ethereum/EIPs/blob/master/EIPS/eip-2537.md",
            "reference-spec-version": "cd0f016ad0c4c68b8b1f5c502ef61ab9353b6e5e"
        }
    },
    "tests/prague/eip2537_bls_12_381_precompiles/test_bls12_g1add.py::test_valid[fork_Prague-state_test-not_in_subgroup_2-]": {
        "env": {
            "currentCoinbase": "0x2adc25665018aa1fe0e6bc666dac8fc2697ff9ba",
            "currentGasLimit": "0x016345785d8a0000",
            "currentNumber": "0x01",
            "currentTimestamp": "0x03e8",
            "currentRandom": "0x0000000000000000000000000000000000000000000000000000000000000000",
            "currentDifficulty": "0x00",
            "currentBaseFee": "0x07",
            "currentExcessBlobGas": "0x00"
        },
        "pre": {
            "0x0000000000000000000000000000000000001000": {
                "nonce": "0x01",
                "balance": "0x00",
                "code": "0x366000600037600060003660006000600b6101f4f16000553d6001553d600060003e3d600020600255",
                "storage": {}
            },
            "0xa94f5374fce5edbc8e2a8697c15331677e6ebf0b": {
                "nonce": "0x00",
                "balance": "0x038d7ea4c68000",
                "code": "0x",
                "storage": {}
            }
        },
        "transaction": {
            "nonce": "0x00",
            "gasPrice": "0x0a",
            "gasLimit": [
                "0x989874"
            ],
            "to": "0x0000000000000000000000000000000000001000",
            "value": [
                "0x00"
            ],
            "data": [
                "0x000000000000000000000000000000000000000000000000000000000000000000000000000000000000000000000000000000000000000000000000000000000000000000000000000000000000000000000000000000000000000000000000000000000000000000000000000000000000000000000000000000000000000200000000000000000000000000000000000000000000000000000000000000000000000000000000000000000000000000000000000000000000000000000000000000000000000000000000000000001a0111ea397fe69a4b1ba7b6434bacd764774b84f38512bf6730d2a0f6b0f6241eabfffeb153ffffb9feffffffffaaa9"
            ],
            "sender": "0xa94f5374fce5edbc8e2a8697c15331677e6ebf0b",
            "secretKey": "0x45a915e4d060149eb4365960e6a7a45f334393093061116b197e3240065ff2d8"
        },
        "post": {
            "Prague": [
                {
                    "hash": "0x0993ee44ffb200e11e22bfabe381476d6daeef918594b6dbd6f87e1774e1df4a",
                    "logs": "0x1dcc4de8dec75d7aab85b567b6ccd41ad312451b948a7413f0a142fd40d49347",
                    "txbytes": "0xf90162800a8398987494000000000000000000000000000000000000100080b90100000000000000000000000000000000000000000000000000000000000000000000000000000000000000000000000000000000000000000000000000000000000000000000000000000000000000000000000000000000000000000000000000000000000000000000000000000000000000000000000000000000000000000200000000000000000000000000000000000000000000000000000000000000000000000000000000000000000000000000000000000000000000000000000000000000000000000000000000000000001a0111ea397fe69a4b1ba7b6434bacd764774b84f38512bf6730d2a0f6b0f6241eabfffeb153ffffb9feffffffffaaa926a04872afd9e27557d8af2fb2151b3f8b485b8607e2d18a5549fd884d9b986890f8a028a141e07642de47d150c5885946bc24c0eed5d27e1a9a8ec22cf54389c74ac0",
                    "indexes": {
                        "data": 0,
                        "gas": 0,
                        "value": 0
                    }
                }
            ]
        },
        "_info": {
            "hash": "0x5c05e3baa4c68b1a292c0a560ba1e17bffb8d98e49fb29bce077cb532fe03af1",
            "comment": "`execution-spec-tests` generated test",
            "filling-transition-tool": "ethereumjs t8n v1",
            "description": "Test function documentation:\n\n    Test the BLS12_G1ADD precompile.",
            "url": "https://github.com/ethereum/execution-spec-tests/blob/pectra-devnet-3@v1.1.0/tests/prague/eip2537_bls_12_381_precompiles/test_bls12_g1add.py#L24",
            "reference-spec": "https://github.com/ethereum/EIPs/blob/master/EIPS/eip-2537.md",
            "reference-spec-version": "cd0f016ad0c4c68b8b1f5c502ef61ab9353b6e5e"
        }
    }
}