{
    "tests/cancun/eip7516_blobgasfee/test_blobgasfee_opcode.py::test_blobbasefee_during_fork[fork_ShanghaiToCancunAtTime15k-blockchain_test_engine]": {
        "network": "ShanghaiToCancunAtTime15k",
        "genesisBlockHeader": {
            "parentHash": "0x0000000000000000000000000000000000000000000000000000000000000000",
            "uncleHash": "0x1dcc4de8dec75d7aab85b567b6ccd41ad312451b948a7413f0a142fd40d49347",
            "coinbase": "0x0000000000000000000000000000000000000000",
            "stateRoot": "0xb4798a02f839467fd8001f1ddd536c9255225c60e8b8059f309ab24803e474f4",
            "transactionsTrie": "0x56e81f171bcc55a6ff8345e692c0f86e5b48e01b996cadc001622fb5e363b421",
            "receiptTrie": "0x56e81f171bcc55a6ff8345e692c0f86e5b48e01b996cadc001622fb5e363b421",
            "bloom": "0x00000000000000000000000000000000000000000000000000000000000000000000000000000000000000000000000000000000000000000000000000000000000000000000000000000000000000000000000000000000000000000000000000000000000000000000000000000000000000000000000000000000000000000000000000000000000000000000000000000000000000000000000000000000000000000000000000000000000000000000000000000000000000000000000000000000000000000000000000000000000000000000000000000000000000000000000000000000000000000000000000000000000000000000000000000000",
            "difficulty": "0x00",
            "number": "0x00",
            "gasLimit": "0x016345785d8a0000",
            "gasUsed": "0x00",
            "timestamp": "0x00",
            "extraData": "0x00",
            "mixHash": "0x0000000000000000000000000000000000000000000000000000000000000000",
            "nonce": "0x0000000000000000",
            "baseFeePerGas": "0x07",
            "withdrawalsRoot": "0x56e81f171bcc55a6ff8345e692c0f86e5b48e01b996cadc001622fb5e363b421",
            "hash": "0x95586fb5cc37fcf91c35ff2bb388ffe5feb323f9e0086eaf507d0723460e0350"
        },
        "pre": {
            "0x000f3df6d732807ef1319fb7b8bb8522d0beac02": {
                "nonce": "0x01",
                "balance": "0x00",
                "code": "0x3373fffffffffffffffffffffffffffffffffffffffe14604d57602036146024575f5ffd5b5f35801560495762001fff810690815414603c575f5ffd5b62001fff01545f5260205ff35b5f5ffd5b62001fff42064281555f359062001fff015500",
                "storage": {}
            },
            "0xa94f5374fce5edbc8e2a8697c15331677e6ebf0b": {
                "nonce": "0x00",
                "balance": "0x1d6329f1c35ca4bfabb9f5610000000000",
                "code": "0x",
                "storage": {}
            },
            "0x0000000000000000000000000000000000000100": {
                "nonce": "0x00",
                "balance": "0x00",
                "code": "0x6000600060006000600061020061fffff14355",
                "storage": {
                    "0x01": "0xff",
                    "0x02": "0xff",
                    "0x03": "0xff"
                }
            },
            "0x0000000000000000000000000000000000000200": {
                "nonce": "0x00",
                "balance": "0x00",
                "code": "0x4a00",
                "storage": {}
            }
        },
        "postState": {
            "0x0000000000000000000000000000000000000100": {
                "nonce": "0x00",
                "balance": "0x00",
                "code": "0x6000600060006000600061020061fffff14355",
                "storage": {
                    "0x03": "0x01"
                }
            },
            "0x0000000000000000000000000000000000000200": {
                "nonce": "0x00",
                "balance": "0x00",
                "code": "0x4a00",
                "storage": {}
            },
            "0x000f3df6d732807ef1319fb7b8bb8522d0beac02": {
                "nonce": "0x01",
                "balance": "0x00",
                "code": "0x3373fffffffffffffffffffffffffffffffffffffffe14604d57602036146024575f5ffd5b5f35801560495762001fff810690815414603c575f5ffd5b62001fff01545f5260205ff35b5f5ffd5b62001fff42064281555f359062001fff015500",
                "storage": {
                    "0x1a99": "0x3a98"
                }
            },
            "0x2adc25665018aa1fe0e6bc666dac8fc2697ff9ba": {
                "nonce": "0x00",
                "balance": "0xbc935690dc85",
                "code": "0x",
                "storage": {}
            },
            "0xa94f5374fce5edbc8e2a8697c15331677e6ebf0b": {
                "nonce": "0x03",
                "balance": "0x1d6329f1c35ca4bfabb9f4a46ca958fe00",
                "code": "0x",
                "storage": {}
            }
        },
        "lastblockhash": "0x644fa77570cfda6020d35f108093c9cee2c41d3a7b0c2ff3889c83cdd665a370",
        "engineNewPayloads": [
            {
                "params": [
                    {
                        "parentHash": "0x95586fb5cc37fcf91c35ff2bb388ffe5feb323f9e0086eaf507d0723460e0350",
                        "feeRecipient": "0x2adc25665018aa1fe0e6bc666dac8fc2697ff9ba",
                        "stateRoot": "0xb250ccc50624c81ca684f79af8e0303e9f105e5bd022356b66d91664c7b05d76",
                        "receiptsRoot": "0xfe1031d3afe85b36192c7e26089083ffcadf2a006869c9d3eaae3056dceaea4b",
                        "logsBloom": "0x00000000000000000000000000000000000000000000000000000000000000000000000000000000000000000000000000000000000000000000000000000000000000000000000000000000000000000000000000000000000000000000000000000000000000000000000000000000000000000000000000000000000000000000000000000000000000000000000000000000000000000000000000000000000000000000000000000000000000000000000000000000000000000000000000000000000000000000000000000000000000000000000000000000000000000000000000000000000000000000000000000000000000000000000000000000",
                        "blockNumber": "0x1",
                        "gasLimit": "0x16345785d8a0000",
                        "gasUsed": "0x15d0e",
                        "timestamp": "0x1d4c",
                        "extraData": "0x",
                        "prevRandao": "0x0000000000000000000000000000000000000000000000000000000000000000",
                        "baseFeePerGas": "0x7",
                        "blockHash": "0xa286b0c563631db6e565b0faaafd82c1759d8b5cac9329f0a26350f938318091",
                        "transactions": [
                            "0xf86480843b9aca00830f4240940000000000000000000000000000000000000100808025a078bda1e1cb92b405bf1c49f292286f622ebd05ea52b0d7793e7e614c560c86d3a07e9b6734e2203cd58a048e8b1750bea1d9ccdf10f5d612dad80550fdd2081c4a"
                        ],
                        "withdrawals": []
                    }
                ],
                "newPayloadVersion": "2",
                "forkchoiceUpdatedVersion": "2"
            },
            {
                "params": [
                    {
                        "parentHash": "0xa286b0c563631db6e565b0faaafd82c1759d8b5cac9329f0a26350f938318091",
                        "feeRecipient": "0x2adc25665018aa1fe0e6bc666dac8fc2697ff9ba",
                        "stateRoot": "0x991d2674e0052bcffa34bbcd085165758f6902d09c46af4aae29658f644e4be9",
                        "receiptsRoot": "0xfe1031d3afe85b36192c7e26089083ffcadf2a006869c9d3eaae3056dceaea4b",
                        "logsBloom": "0x00000000000000000000000000000000000000000000000000000000000000000000000000000000000000000000000000000000000000000000000000000000000000000000000000000000000000000000000000000000000000000000000000000000000000000000000000000000000000000000000000000000000000000000000000000000000000000000000000000000000000000000000000000000000000000000000000000000000000000000000000000000000000000000000000000000000000000000000000000000000000000000000000000000000000000000000000000000000000000000000000000000000000000000000000000000",
                        "blockNumber": "0x2",
                        "gasLimit": "0x16345785d8a0000",
                        "gasUsed": "0x15d0e",
                        "timestamp": "0x3a97",
                        "extraData": "0x",
                        "prevRandao": "0x0000000000000000000000000000000000000000000000000000000000000000",
                        "baseFeePerGas": "0x7",
                        "blockHash": "0x5c196386b03ef512210032b086effd4c4aae0bd59d6aba847a66535d082b9bad",
                        "transactions": [
                            "0xf86401843b9aca00830f4240940000000000000000000000000000000000000100808025a05a305eeb6255567555610c96fec7c90e285aef7d705790174cacff4095e58b5aa009a597b4bbf42f22c544ca3b6e8988ee7c304bb0c9c2470dba9ca1c958625402"
                        ],
                        "withdrawals": []
                    }
                ],
                "newPayloadVersion": "2",
                "forkchoiceUpdatedVersion": "2"
            },
            {
                "params": [
                    {
                        "parentHash": "0x5c196386b03ef512210032b086effd4c4aae0bd59d6aba847a66535d082b9bad",
                        "feeRecipient": "0x2adc25665018aa1fe0e6bc666dac8fc2697ff9ba",
                        "stateRoot": "0xe6e41f59b0aace3ce362e5027be4c0efc9ccfe854eb8658e12687bdb134e2f82",
                        "receiptsRoot": "0x8759b855bac843148bb8ba7fca9b4708e4b19ca7569c4d8cdf0db1bcf59ddbd0",
                        "logsBloom": "0x00000000000000000000000000000000000000000000000000000000000000000000000000000000000000000000000000000000000000000000000000000000000000000000000000000000000000000000000000000000000000000000000000000000000000000000000000000000000000000000000000000000000000000000000000000000000000000000000000000000000000000000000000000000000000000000000000000000000000000000000000000000000000000000000000000000000000000000000000000000000000000000000000000000000000000000000000000000000000000000000000000000000000000000000000000000",
                        "blockNumber": "0x3",
                        "gasLimit": "0x16345785d8a0000",
                        "gasUsed": "0x6fd1",
                        "timestamp": "0x3a98",
                        "extraData": "0x",
                        "prevRandao": "0x0000000000000000000000000000000000000000000000000000000000000000",
                        "baseFeePerGas": "0x7",
                        "blobGasUsed": "0x0",
                        "excessBlobGas": "0x0",
                        "blockHash": "0x644fa77570cfda6020d35f108093c9cee2c41d3a7b0c2ff3889c83cdd665a370",
                        "transactions": [
                            "0xf86402843b9aca00830f4240940000000000000000000000000000000000000100808026a080830b778f8433c8b58035d9c099d6aa7cd892b3dc68569b703da1eb91add652a06d52d9f26efdcdf3f4087f02cd961cae2fd7a6773140e4bf867e49aacaf9d87f"
                        ],
                        "withdrawals": []
                    },
                    [],
                    "0x0000000000000000000000000000000000000000000000000000000000000000"
                ],
                "newPayloadVersion": "3",
                "forkchoiceUpdatedVersion": "3"
            }
        ],
        "_info": {
            "hash": "0x2a1411fca9d1ef7ac9191e307eb6d1f65057871a11e300ed46eca046955de247",
            "comment": "`execution-spec-tests` generated test",
            "filling-transition-tool": "evm version 1.14.8-unstable-0d177456-20240723",
            "description": "Test function documentation:\n\n    Tests that the BLOBBASEFEE opcode results on exception when called before the fork and\n    succeeds when called after the fork.",
            "url": "https://github.com/ethereum/execution-spec-tests/tree/v3.0.0/tests/cancun/eip7516_blobgasfee/test_blobgasfee_opcode.py#L198",
            "reference-spec": "https://github.com/ethereum/EIPs/blob/master/EIPS/eip-7516.md",
            "reference-spec-version": "2ade0452efe8124378f35284676ddfd16dd56ecd"
        }
    }
}